:020000040800F2
:10000000680900209D010008CB2C000897280008F3
:10001000C92C0008090B00089D31000800000000F1
:10002000000000000000000000000000CF2C0008CD
:10003000C90C000800000000CD2C0008D12C0008DD
:10004000B7010008B7010008B7010008B7010008B0
:10005000B7010008B7010008B7010008B7010008A0
:10006000CB0C0008B7010008B7010008B701000871
:10007000B7010008B7010008B7010008B701000880
:10008000B7010008B7010008C5090008B70100085A
:10009000B7010008B7010008B7010008B701000860
:1000A000B7010008B7010008B7010008B701000850
:1000B000B7010008B7010008B7010008B701000840
:1000C000B7010008B7010008B7010008B701000830
:1000D000B701000891310008B7010008B701000816
:1000E000B7010008B7010008B7010008B701000810
:1000F000B7010008B7010008B7010008B701000800
:10010000B7010008B7010008B7010008B7010008EF
:10011000B7010008B7010008B7010008B7010008DF
:10012000F50B0008B70100080D0C0008B701000826
:10013000B7010008B7010008B7010008B7010008BF
:10014000B7010008B7010008B7010008B7010008AF
:10015000B7010008B7010008B7010008B70100089F
:10016000B7010008B7010008B7010008B70100088F
:10017000B7010008B7010008B7010008000000003F
:10018000B7010008B7010008DFF80CD000F0E0FA72
:10019000004800477D3B000868090020064880476A
:1001A00006480047FEE7FEE7FEE7FEE7FEE7FEE75C
:1001B000FEE7FEE7FEE7FEE7692D0008890100087B
:1001C0002DE9F05F0546002092469B46884606468C
:1001D000814640241BE0284641464746224600F01F
:1001E0008AF953465A46C01A914110D3114618460F
:1001F000224600F071F92D1A67EB01084F4622469E
:100200000120002100F068F917EB00094E41201E83
:10021000A4F10104DFDC484631462A464346BDE8E6
:10022000F09FD2B201E000F8012B491EFBD27047CB
:100230000022F6E710B513460A4604461946FFF7B2
:10024000F0FF204610BD2DE9FE4F81EA030404F0C3
:10025000004421F0004100944FF0000B23F00043D4
:1002600050EA01045ED052EA03045BD0C3F30A549F
:10027000C1F30A552C44A4F2F3340194A0FB0254B8
:10028000C1F3130141F48011C3F3130343F480134A
:1002900001FB024400FB034E840A970A44EA81549E
:1002A00047EA8357A4FB076802958D0A05FB07857B
:1002B0004FEA932C04FB0C542705029D4FEA065885
:1002C00047EA1637B5EB08056EEB070C870E920E62
:1002D00047EA811742EA8312A7FB0201B6EB0B0142
:1002E00064EB00042B0D43EA0C335E1844EB1C5006
:1002F000DA465146E7FB0201C5F313044FEA0B331C
:1003000043EA14534FEA0432019C43EA0603A4F182
:100310000C040294009CCDE900B400F00BF903B08A
:10032000BDE8F08F00200146F9E72DE9F04D81EAA4
:10033000030404F0004B21F0004514464FF0000A7E
:1003400023F0004150EA050220D054EA01021DD0FA
:10035000C5F30A570246C5F31303C1F31300C1F3F3
:100360000A5640F4801543F48013A7EB0608101BCF
:10037000D64608F2FD3873EB050002D308F10108F8
:1003800001E092185B41B8F1000F03DA002001464A
:10039000BDE8F08D00204FF48011064684460EE043
:1003A000171B73EB050705D3121B63EB050306430D
:1003B0004CEA010C49084FEA300092185B4150EAC0
:1003C0000107EDD152EA030012D082EA040083EA69
:1003D0000501084305D0101BAB4106D201220023C2
:1003E00006E000224FF0004302E06FF001025310DC
:1003F0001AEB06004CEB085110EB0A0041EB0B0125
:10040000BDE8F04D00F087B80EB540F233410291DF
:100410000021CDE900110A460B4600F08BF803B02D
:1004200000BDC1F30A5210B5C1F3130140F2FF330E
:1004300041F480119A4201DA002010BD40F23343AA
:100440009A42A2F2334203DC524200F054F810BD4B
:10045000904010BD00F0004230F000400AD0C10DC5
:1004600001F56071C0F3160042EA0151C20840076D
:1004700011437047002001467047000030B5041E4C
:1004800071F1000404DB4FF00044404264EB0101D1
:10049000141E73F1000405DB1C464FF0004352426A
:1004A00063EB0403994208BF904230BD30B50B4660
:1004B000014600202022012409E021FA02F59D4294
:1004C00005D303FA02F5491B04FA02F52844151E68
:1004D000A2F10102F1DC30BD202A04DB203A00FA4F
:1004E00002F1002070479140C2F1200320FA03F38B
:1004F000194390407047202A04DB203A21FA02F089
:100500000021704721FA02F3D040C2F1200291404D
:1005100008431946704710B5141E73F1000408DA39
:10052000401C41F1000192185B411A4301D120F0B7
:10053000010010BD2DE9F04D92469B4611B1B1FA74
:1005400081F202E0B0FA80F220329046FFF7C4FF59
:1005500004460F4640EA0A0041EA0B0153465A4658
:10056000084313D0114653EA010019D0C8F14002E4
:100570005046FFF7C0FF05460E46504659464246D4
:10058000FFF7AAFF084305D0012004E020463946C2
:10059000BDE8F08D0020054346EAE0762C43374362
:1005A0000A986305E40AA0EB08000022FD0A44EA69
:1005B00047540A3002D500200146E9E70105101929
:1005C0006941DDE9084500196941BDE8F04DA2E740
:1005D0002DE9FE4F804681EA0300C00F0C460090D3
:1005E00021F0004123F00045B8EB0200A94105D2FB
:1005F0004046214690461C460B46024623F00040EA
:10060000104347D0270DC7F30A00C3F30A510290E5
:10061000401A019040286BDAC3F3130040F4801BAA
:100620000098924620B10023D2EB030A63EB0B0B38
:1006300001985946C0F140025046FFF74DFF06466B
:100640000D4650465946019A00F094F810EB080008
:100650006141002487EA115284EAE7731A4340D0CB
:10066000009A62B3019A012A4FEA075215DC001B77
:1006700061EB02014FF0004202EA0752CDE900426D
:10068000001C41F5801132462B46FFF753FF03B0A3
:10069000BDE8F08F40462146F9E7001B61EB0201FF
:1006A000001C41F5801300185B412018A2F50017CB
:1006B00047EB030140EAD570B6196D4111E06D08B2
:1006C0004FEA360645EAC0754FEA0752001B61EB58
:1006D0000201001C41F5801149084FEA3000001961
:1006E000514132462B4603B0BDE8F04FFFF713BF30
:1006F0000098012240000023D0EB020263EBE0737C
:10070000009821464FEAE074B8EB000061EB040169
:10071000E9E783F000435BE781F0004158E7C1F36C
:100720000A52C1F3130140F2FF3341F480119A429F
:1007300002DA00200146704740F233439A42A2F2A7
:10074000334202DC5242FFF7D6BEFFF7C5BE0000BF
:10075000064C074D06E0E06840F0010394E807000E
:1007600098471034AC42F6D3FFF712FD403F000823
:10077000603F0008202A06DBCB17203A41FA02F03E
:1007800043EAE07306E041FA02F3D040C2F12002EE
:10079000914008431946704770B5284886B0002537
:1007A000016841F002010160016801F00201059158
:1007B000016841F004010160016801F00401059144
:1007C000016841F0200101600068012400F0200070
:1007D00005904FF4E070CDE90004032669460396C6
:1007E000174800F053FF43F23C000396CDE90004A4
:1007F000144E6946304600F049FF40F20340CDE90F
:10080000000469460395304600F040FF00946946B5
:100810000D480395019400F039FF02F065F802F0ED
:100820004FF80A4A0321012000F040F8074A02214C
:10083000921E084600F03AF806B070BD303802400B
:100840000014024000040240000802402200002080
:1008500018B5002200920C468DF800006A4601216E
:10086000002000F023F8204602F099FC18BD38B5AE
:10087000002200920C468DF800006A4601210020FB
:1008800000F014F8204602F09BFC38BD18B5002299
:1008900000920C468DF800006A460121002000F00D
:1008A00005F8204602F0B2FC18BD0000F0B51F4B61
:1008B00000252C46C3F88452DFF874E0CEF8985235
:1008C0005FF00107C3F88442060602D5C3F89472AC
:1008D00001E0C3F89442C3F8847240066D1C000E18
:1008E000EDB2082DEED3C3F88442002018E0165C68
:1008F0005FF00005C3F884425FEA066C02D5C3F8D6
:10090000947201E0C3F89442C3F8847276066D1CB9
:10091000360EEDB2082DEDD3C3F88442401CC0B2B0
:100920008842E4D3CEF89872F0BD000000804042C7
:100930000080424210B50146806B026C12F0500FED
:1009400005D0026CD20626D500F06EFA10BD016CFF
:1009500041F40071016401688A6812F0405F17D1A8
:10096000027EAAB9CA6A12F4700F02D08A685205D0
:100970000ED44A6822F020024A60016C21F4807192
:100980000164016CC90403D4016C41F001010164EC
:1009900000F048FA10BD806BC26CBDE810400846FC
:1009A000104710B5806B40210164416C41F0040197
:1009B000416400F039FA10BD10B5806B00F033FAD5
:1009C00010BD000010B5044800F02FFABDE810403B
:1009D000024800F02ABA00009C000020E400002039
:1009E000464910B54A6822F440324A604A68436872
:1009F0001A434A6001684A6822F480724A600168BA
:100A00004A68036942EA03224A6001684A6822F0A0
:100A100040724A6001684A6883681A434A60016804
:100A20008A6822F400628A6001688A68C3681A438F
:100A30008A60816A6FF07062D14201688A6822F030
:100A400070628A6001688A680CD0836A1A438A607F
:100A500001688A6822F040528A6001688A68C36A25
:100A60001A4301E022F040528A6001688A6822F04D
:100A700002028A6001688A68037E42EA43028A6051
:100A800090F82010002901684A680FD042F40062F3
:100A90004A6001684A6822F460424A6001684A6814
:100AA000174C436A04EB43331A4301E022F400621B
:100AB0004A600168CA6A22F47002CA620168CA6A9E
:100AC000838B104C04EB03531A43CA6201688A6893
:100AD00022F400728A6001688A6890F8303042EA35
:100AE00043228A6001688A6822F480628A60016811
:100AF0008A68406942EA8020886010BD0023014076
:100B000000E0FFFF0000F0FFFEE7000070B5294E97
:100B1000054600200C46707030701922264927487F
:100B200000F0D0FA244919223231254800F0CAFADF
:100B3000244801F0B1FB30780028FCD07078002800
:100B4000F9D0204801F0E4FB1C4800F065FB1C488C
:100B500000F062FB002318481A4600BF30F812105C
:100B6000521C92B20B44192AF8D300EE103AF3EE5D
:100B7000090A0021B8EE401A0F4A084612F1320263
:100B800081EE200A9FED101A20EE010A85ED000A81
:100B900032F81030401C80B219441928F8D300EE06
:100BA000101AB8EE400AC0EE201A21EE810A84ED38
:100BB000000A70BD00000020380000209C000020CA
:100BC000E4000020940200206740533A10B5044628
:100BD000FFF74DFE80212046FFF73AFE0021204618
:100BE000FFF754FE01F058FEBDE81040642002F00B
:100BF0009FBF000010B5034800F0A0FB0249012090
:100C0000087010BD2C0100200000002010B5034822
:100C100000F094FB02490120087010BD8C010020F7
:100C20000100002001681823CAB2103AB2FBF3F2A7
:100C3000054B6FF30901032A9B5CC36500D9091DAD
:100C40008165084670470000203F000810B5014646
:100C500000208B698A6A4FF0C07453B1B3F5005F0E
:100C600015D072B1012A0CD0022A0AD0032A09D168
:100C700004E01AB1012A06D0022A03D1C96AC901C7
:100C800000D5012010BDC96AA142FAD010BD002ACA
:100C9000F7D0012AF2D0022AF3D0032AF3D010BDF4
:100CA00030B50468256825F48025256004686360F4
:100CB0008368402B036803D099600068C26030BD30
:100CC0009A600068C16030BD7047042000F0D2BC5B
:100CD00072B6FEE77047000078B50024009490F8E3
:100CE0003C20012A19D0012280F83C200A68072301
:100CF0000568092A13D9EE680A3A02EB42029340CA
:100D00009E43EE600B788A680A3B03EB43039A40EC
:100D10000368DD682A43DA6010E0022078BD2E699E
:100D200002EB420293409E432E610B788A6803EBEC
:100D300043039A4003681D692A431A614A681F23C6
:100D4000072A13D205686E6B521E02EB8202934093
:100D50009E436E630B790A885B1E92B203EB83039A
:100D60009A4003685D6B2A435A6327E005680D2AA1
:100D700012D22E6BD21F02EB820293409E432E634F
:100D80000B790A88DB1F92B203EB83039A40036856
:100D90001D6B2A431A6311E0EE6A0D3A02EB8202E0
:100DA00093409E43EE620B790A880D3B92B203EBAF
:100DB00083039A400368DD6A2A43DA62164B0568AA
:100DC000144A9D4206D10D68122D03D1556845F491
:100DD0008005556005689D4218D10B68102B01D025
:100DE000112B13D1536843F4000353600968102991
:100DF0000CD10A490A4A0968B1FBF2F101EB810101
:100E0000490000E0491E00910029FBD180F83C40D8
:100E1000002078BD00230140002001401400002084
:100E200040420F0070477047704770B50446006835
:100E30000668456816F0020F05F020012AD049B374
:100E4000216CC90603D4216C41F4007121648168CE
:100E500011F0405F17D1217EA9B9C16A11F4700F5A
:100E600002D0816849050ED4416821F0200141601B
:100E7000206C20F480702064206CC00403D4206CAB
:100E800040F0010020642046FFF7CCFF21686FF09E
:100E90001200086016F0040F05F0800132D089B30B
:100EA000206CC00603D4206C40F4005020642068FD
:100EB000816811F4401F1ED1816B11F4401F02D0D4
:100EC0008168490517D44168490514D4816811F037
:100ED000405F10D1217E71B9416821F080014160ED
:100EE000206C20F480502064206CC00503D4206C5A
:100EF00040F0010020642046FFF7ECFE21686FF00F
:100F00000C00086016F0010F05F040010FD071B120
:100F100020680068C0070AD0206C40F4803020644C
:100F2000204600F043F821686FF00100086016F0D9
:100F3000200F05F080610ED000290CD0606C40F0CD
:100F40000200606420686FF0200505602046FFF70E
:100F50006BFF2068056070BD70B504004FF00005A0
:100F600003D0206C002610B107E0012070BD2046A0
:100F700000F01EF8666484F83C60206CC00610D453
:100F8000206C20F4885040F0020020642046FFF7D7
:100F900027FD6664206C20F0020040F00100206410
:100FA00000E0012584F83C60284670BD70470000D1
:100FB0002DE9F04387B0064614216846FFF738F95B
:100FC0003B48DFF8E8C0143835680024384903236B
:100FD000384A07154FF400684FF40059654531D180
:100FE0000D6845F480750D60096801F48071059104
:100FF000016841F0010101600068694600F00100EC
:10100000059020208DE81900104600F03FFB2B4D85
:10101000294805F10C0CC5E90004AC608CE890038C
:10102000EC612C6228466C6238E0B5630022114600
:101030001220AE6300F0B2FD122000F0A1FD07B057
:10104000BDE8F083DFF878C06545F8D10D6845F458
:1010500000750D60096801F400710591016841F0A7
:10106000010101600068694600F00100059001205F
:101070008DE81900104600F009FB104D0E48603550
:10108000303028604FF00070C5E9010405F10C0C08
:1010900028468CE89003EC612C626C6200F01EFA2A
:1010A0000028C2D0FFF714FEBFE700000020014077
:1010B0004438024000000240106402402C0100202D
:1010C00000210140F8B5044600200E46009094F837
:1010D0003C10012907D0012184F83C1021688B685D
:1010E000DB0702D011E00220F8BD8B6843F001035A
:1010F0008B604049404B0968B1FBF3F101EB4101C2
:1011000000E0491E00910029FBD121688B68DB05B6
:1011100003D58B6823F480738B6021688B68DB07B1
:101120005DD0236C40F20165AB4343F480732364CC
:101130004968490505D5216C21F4005141F48051DD
:101140002164216CC90404D5616C21F0060161643D
:1011500000E0606484F83C00A16B2948274DC86317
:10116000A16B28480864A16B2748C86421686FF008
:10117000220008602068416841F080614160206879
:10118000816841F4807181602168134632464C3198
:10119000A06B00F00DFA68681C49C006206806D0F4
:1011A000884224D1816811F0405F13D01FE088424B
:1011B000F8D0174A904203D1D1F80423D206F1D0D7
:1011C000144A904213D1D1F8041301F01F011029E1
:1011D000E8D30CE0816841F08041816007E0206C39
:1011E00040F010002064606C40F00100606400205A
:1011F000F8BD00001400002040420F000023014011
:1012000035090008B9090008A309000800200140B9
:10121000002101400022014010B50446002094F84E
:101220003C1001290CD0012184F83C1021688A6807
:1012300022F001028A6021688A68D20702D01DE08C
:10124000022010BD8A6822F480728A60A16B91F836
:101250003520022A07D1084600F014F818B1216C95
:1012600041F04001216421684A6822F080624A60AE
:10127000216C21F4885141F001012164002184F89E
:101280003C1010BD2DE9F0410446876D00F000FBD5
:10129000064694F835000025022806D080206065B7
:1012A00084F834500120BDE8F0812068016821F005
:1012B000160101602068416921F080014161206CC4
:1012C00008B9A06C20B12068016821F00801016014
:1012D0002068016821F0010101600CE000F0D8FAFB
:1012E000801B052807D920206065032084F835007D
:1012F00084F83450D7E720680068C007EED194F82E
:101300005C103F208840B860012084F8350084F8E4
:1013100034500020C7E790F83510022903D080210F
:10132000416501207047052180F83510006801688B
:1013300021F0010101600020704700002DE9F84311
:1013400004464FF00009CDF8009063484FF4165161
:10135000A56D0068B0FBF1F72E6894F85C100820CA
:1013600000FA01F131420FD021680A6852070BD50B
:101370000A6822F004020A6094F85C108840A860B1
:10138000606D40F00100606594F85C104FF001085A
:1013900008FA01F0304208D021684969090604D5ED
:1013A000A860606D40F00200606594F85C10042055
:1013B0008840304208D021680968890704D5A860B0
:1013C000606D40F00400606594F85C101020884067
:1013D000304218D021680968090714D5A860206830
:1013E0000168490304D50068000308D5A16C07E033
:1013F0000168C90503D4016821F008010160216C6E
:1014000009B12046884794F85C102020884030427B
:1014100031D021680968C9062DD5A86094F8350037
:1014200005282068016806D0490347D500680003F5
:101430001DD4616C1CE021F0160101602068416937
:1014400021F080014161206C08B9A06C20B12068B6
:10145000016821F00801016094F85C103F20884089
:10146000A86084F8358084F83490216D1FE0E16B2A
:1014700009B120468847606D00282BD0606DC007F9
:1014800014D0052084F835002068016821F001019E
:1014900001600098401C0090B84203D820680068A2
:1014A000C007F6D184F8358084F83490E16C0029C7
:1014B00010D001B02046BDE8F04308470168C905D7
:1014C000D5D4016821F01001016084F8358084F8DA
:1014D0003490CCE7BDE8F883140000202DE9F041FA
:1014E000044600F0D5F906465CB1022084F83500C8
:1014F000002584F834502068016821F00101016062
:101500000DE00120BDE8F08100F0C2F9801B052844
:1015100005D920206065032084F83500F2E72068B3
:101520000068C007F0D12268116820480140D4E962
:1015300001031843D4E9033633431843636918435E
:10154000A3691843E3691843236A18430843616A8F
:10155000042903D1D4E90B13194308431060206810
:101560004069666A20F0070130460E4301270428CF
:101570000CD1A06A0643E06A40B12046FFF766FB43
:1015800020B14020606584F83570BAE72068466174
:101590002046FFF747FB94F85C203F219140816093
:1015A000656584F835700020ACE700003F8010F0DE
:1015B0002DE9F0410446866D90F83400002501289D
:1015C0000DD0012084F8340094F835700020012FEC
:1015D00007D084F8340002252846BDE8F0810220B7
:1015E000FBE7022784F8357060652046FFF758FB5B
:1015F00094F85C103F208840B0602068016841F09A
:1016000016010160206C20B12068016841F00801DA
:1016100001602068016841F001010160DCE7000021
:1016200070B5044600F034F90546601C02D0044849
:101630000078044400F02CF9401BA042FAD370BD9E
:101640000800002070B504280FD100F021F9074DE3
:1016500004466868201A142806D90421044800F0BA
:101660000DF908B90020A8706C6070BD0000002062
:1016700000100240044910B50A68024202D0086016
:10168000FFF7E0FF10BD0000143C01402DE9F84FCA
:10169000DFF8BCA10022012503264FF00F090AF153
:1016A000040BAAF1040E00BF0B6805FA02F42340F4
:1016B000A34270D10F7907F00307012F01D0022F49
:1016C00016D187684FEA420806FA08FC27EA0C0799
:1016D000D1F80CC00CFA08FC4CEA070CC0F808C0A2
:1016E0004768A7430C79C4F3001494403C4344601A
:1016F0000C79E443A4070AD0C4684FEA420C06FA06
:101700000CF7BC438F6807FA0CF72743C7600C79C6
:1017100004F00304022C12D1D40800EB840CDCF892
:1017200020405707FF0E09FA07F824EA0804D1F809
:10173000108008FA07F848EA0408CCF8208004680A
:101740004FEA420C06FA0CF7BC430F7907F0030787
:1017500007FA0CF7274307604C6814F4403F70D039
:101760003C4C276847F480472760246822F0030731
:1017700004F480440094384C07EB040CDCF808486F
:1017800097074FEA177809FA08F7BC43334FB84276
:1017900002D1002724E054E0314FB84201D10127A3
:1017A0001EE0304FB84201D1022719E02E4FB84257
:1017B00001D1032714E02D4FB84201D104270FE0D7
:1017C0002B4FB84201D105270AE02A4FB84201D178
:1017D000062705E0284FB84201D1072700E0082777
:1017E00007FA08F72743CCF80878DAF8004057469C
:1017F000D1F804C09C435FEACC2C00D51C433C606C
:10180000DBF800405F46D1F804C09C435FEA8C2CB3
:1018100000D51C433C60DEF800407746D1F804C098
:101820009C435FEA8C3C00D51C433C60084F083F5A
:101830003C68D1F804C09C435FEACC3C00D51C4313
:101840003C60521C102AFFF42FAFBDE8F88F000057
:10185000083C014044380240003001400000024092
:101860000004024000080240000C02400010024048
:101870000014024000180240001C024000690840A9
:1018800000D0012070470AB1816170470904FBE76D
:1018900001488068704700000800002070B504000F
:1018A00025D094F83D00002520B984F83C5020460E
:1018B00000F0B8F8242084F83D002068016821F089
:1018C000010101602068016841F400410160206865
:1018D000016821F40041016000F02CFA4D4A616872
:1018E000914201D84C4900E04C49884201D2012084
:1018F00070BD4B492368B0FBF1F15E6826F03F06EE
:101900000E435E606368934206D94FF49673594361
:101910004FF47A73B1FBF3F12368491C1E6A26F079
:101920003F06314319626168914210D84900401E58
:10193000B0FBF1F2521CC2F30B02042A01D20420C4
:1019400022E0B0FBF1F0401CC0F30B001CE0A268E9
:10195000F2B301EBC10303EB0116431EB3FBF6F335
:101960005B1C43F480431B0549D092B301EBC102D9
:1019700002EB0111401EB0FBF1F0401CC0F30B0064
:1019800040F4804040F400402168CA694CF6FF737F
:101990009A431043C861D4E90710014320680268E4
:1019A00022F0C00211430160D4E903010143206821
:1019B000826848F2FF339A4311438160D4E90501FC
:1019C00008432168CA6822F0FF021043C86001E0A2
:1019D0000EE016E02068016841F001010160256415
:1019E000202084F83D00256384F83E50002070BD1F
:1019F00001EB4106431EB3FBF6F35B1CB3E701208A
:101A0000C2E701EB4101401EB0FBF1F0401CC0F306
:101A10000B00B7E7A086010080841E0000093D008E
:101A200040420F00F0B587B0044614216846FEF727
:101A3000FFFB2668214C204F20481222012303215E
:101A400004251034BE4219D1066846F0020606602D
:101A50000068CDE9023100F002000590C020CDE918
:101A60000002049569461648FFF710FE206840F40E
:101A700000102060206800F4001019E0114FBE42F1
:101A800017D1066846F020060660006800F02000C6
:101A900005908DE80E00CDE9031569460A48FFF769
:101AA000F5FD206840F480002060206800F480008C
:101AB000059007B0F0BD00000054004030380240EF
:101AC00000040240005800400014024002488168AF
:101AD0000278114481607047080000200B4810B55F
:101AE000016841F400710160016841F480610160A6
:101AF000016841F480710160032000F06FF800205C
:101B000000F006F800F024F8002010BD003C024070
:101B100070B50D4D04464FF47A712878B1FBF0F0A2
:101B20000A490968B1FBF0F000F018FB48B9102C25
:101B300007D200222146501E00F030F800206C60D1
:101B400070BD012070BD00000800002014000020BE
:101B50000A4808B5016841F480410160006800F45A
:101B6000804000900548001F016841F080510160ED
:101B7000006800F08050009008BD0000443802402A
:101B8000002809DB00F01F0201219140400980007C
:101B900000F1E020C0F8001170470000F0B40E4BD7
:101BA0001B680C46C3F30223C3F10705042D00D9BB
:101BB0000425191D072901D2002300E0DB1E0126A0
:101BC00006FA05F1491E214099409E40761E1640B6
:101BD0003143F0BC01F038BB0CED00E0064900F0E9
:101BE000070208684FF6FF03184040EA0220034A44
:101BF00010430860704700000CED00E00000FA059B
:101C00002DE9F0470E46050065D0DFF81481D8F8BD
:101C10000000F7B200F00700B04207D288F8007069
:101C2000D8F8000000F00700B04254D128683D4CBD
:101C3000810712D5400703D5206840F4E0502060AA
:101C40002878000703D5206840F4604020602068B1
:101C5000A96820F0F000084320602878C0072DD044
:101C6000304968680839012812D0022813D00328A7
:101C700011D00968890700292DDA216821F00301B4
:101C800001432160FFF704FE814641F2883A0EE0ED
:101C900009688903EFE709688901ECE7FFF7F8FDB8
:101CA000A0EB0901514502D90320BDE8F087206867
:101CB000696800F00C00B0EB810FEFD1D8F800108C
:101CC000404601F00701B14207D90770006800F0F3
:101CD0000700B04201D00120E7E72878400705D58A
:101CE0002068E96820F4E050084320602878000765
:101CF00006D52068296920F4604040EAC1002060D0
:101D000000F038F82168084AC1F30311515CC8405B
:101D10000649086006480068FFF7FAFE0020C4E79D
:101D2000003C024008380240283F00081400002010
:101D30000C0000200448054900680968044AC1F302
:101D40008221515CC84070471400002008380240CE
:101D5000383F00080448054900680968044AC1F38F
:101D60004231515CC84070471400002008380240DE
:101D7000383F0008154810B5006810F00C021448F0
:101D800013D01449042A0FD0082A0ED10F4C241F57
:101D90002268236802F03F025B0207D52068C0F387
:101DA0008810A0FB010106E0084610BD2168C1F3C0
:101DB0008811A1FB00010023FEF702FA2168C1F39C
:101DC0000141491C4900B0FBF1F010BD0838024048
:101DD0000024F40040787D012DE9F84F04006ED016
:101DE0002078DFF84C93C007A9F104054AD009F127
:101DF00004000168C1F38101012908D00068C0F323
:101E0000810002280AD1D9F80000400206D52868CE
:101E1000800337D560680028E1D033E06068B0F512
:101E2000803F10D0B0F5A02F286810D020F480306B
:101E30002860286820F4802028606068A8B1FFF737
:101E400027FD06460DE0286840F48030F4E740F4B2
:101E500080202860F7E700BFFFF71AFD801B642889
:101E600073D828688003F7D50CE0FFF711FD06460C
:101E700005E000BFFFF70CFD801B6428F0D8286840
:101E80008003F7D42078DFF8AC8280074FF0000A97
:101E90003ED5A748001D016811F00C0F08D000685E
:101EA000C0F3810002280BD1D9F80000400207D40A
:101EB0002868800716D5E068012800D112E033E1D8
:101EC000E068B8B10120C8F80000FFF7E1FC064661
:101ED00005E000BFFFF7DCFC801B0228C0D82868A3
:101EE0008007F7D52868216920F0F80040EAC10092
:101EF00028600DE0C8F800A0FFF7CAFC064604E021
:101F0000FFF7C6FC801B02281FD828688007F7D47B
:101F10002078000722D5864F87486169703771B1F4
:101F200001210160FFF7B4FC064604E0FFF7B0FCB6
:101F3000801B022809D838688007F7D50EE0C0F862
:101F400000A0FFF7A5FC064605E082E0FFF7A0FC35
:101F5000801B02287DD838688007F7D42078400796
:101F600068D5DFF8CCB100270BF13C0BDBF80000A3
:101F7000C0000BD4DBF8001041F08051CBF800100A
:101F8000DBF80000012700F0805000906B4E3068B5
:101F9000C00510D4306840F480703060FFF778FCE2
:101FA000009005E0FFF774FC0099401A022850D811
:101FB0003068C005F6D55E4EA0686C3601280FD09B
:101FC0000528306810D020F001003060306820F023
:101FD00004003060A068B8B1FFF75AFC00900FE031
:101FE000306840F00100F4E740F004003060F7E7AB
:101FF000FFF74EFC0099411A41F28830814266D8C1
:1020000030688007F4D50EE0FFF742FC009007E04F
:10201000FFF73EFC0099411A41F28830814256D8C0
:1020200030688007F4D42FB1DBF8001021F0805124
:10203000CBF80010A069C8B33D49091D0968C1F378
:10204000810102294AD00228504607D0C8F8600012
:1020500000E03CE0FFF71CFC04463BE04746C8F8C4
:102060006000FFF715FC064605E000BFFFF710FC17
:10207000801B02282BD828688001F7D4D4E90701F7
:102080000843A16A2E4A490802EB0141626A41EA0B
:102090008211084394F82C1040EA0161C9F800103D
:1020A00001203866FFF7F4FB044606E03EE000BF7F
:1020B000FFF7EEFB001B022809D828688001F7D53E
:1020C00034E000BFFFF7E4FB001B022802D9032025
:1020D000BDE8F88F28688001F4D427E00128F7D004
:1020E000D9F80000E26900F4800191421CD1226A13
:1020F00000F03F01914217D147F6C071626A01407A
:10210000B1EB821F10D1A26A4FF0FF3300F44031CF
:1021100003EB5202B1EB024F06D194F82C1000F001
:102120007060B0EB016F01D00120D1E70020CFE754
:102130000438024000004742800E474200700040D1
:102140000000FFFF4FF0E0210428086903D020F0D1
:1021500004000861704740F00400FAE710B5401E23
:10216000B0F1807F01D3012010BD4FF0E024606109
:102170000F21601701F068F80020A061072020619E
:10218000002010BD70B590F83C20012A32D0012407
:1021900080F83C40022280F83D2003685A689D6820
:1021A00022F070060A6832435A60134B02689A4262
:1021B00014D0B2F1804F11D0104B9A420ED0104B78
:1021C0009A420BD00F4B9A4208D00F4B9A4205D03F
:1021D0000E4B9A4202D00E4B9A4204D1496825F028
:1021E00080031943916080F83D40002180F83C1045
:1021F000084670BD022070BD000001400004004090
:1022000000080040000C0040000401400040014074
:102210000018004010B5040003D094F83D0010B140
:1022200007E0012010BD002084F83C00204600F0AB
:102230001FF8022084F83D00211D206800F09CFD5D
:10224000012084F8460084F83E0084F83F0084F8BA
:10225000400084F8410084F8420084F8430084F888
:10226000440084F8450084F83D00002010BD0000C3
:1022700008B500680649884208D10648016841F05F
:1022800002010160006800F00200009008BD00003B
:10229000000400404038024090F83D10012901D070
:1022A00001207047022180F83D10006811498842E2
:1022B00014D0B0F1804F11D00F4988420ED00F4991
:1022C00088420BD00E49884208D00E49884205D07A
:1022D0000D49884202D00D49884204D1816801F03D
:1022E0000701062903D0016841F0010101600020C7
:1022F000704700000000014000040040000800405A
:10230000000C004000040140004001400018004063
:1023100001680A6A41F211131A4207D10A6A9B1036
:102320001A4203D10A6822F001020A60012180F8F2
:102330003D100020704770B5044690F83C00002521
:10234000012817D0012684F83C60022084F83D0063
:102350002068826822F0770222F47F428260086857
:10236000502838D00DDC20284FD005DC90B3102841
:1023700011D14AE0022070BD302846D040280AD151
:102380003BE060282FD070280DD0B0F5805F03D0DF
:10239000B0F5005F12D0012584F83D60002084F87C
:1023A0003C00284670BDCB68D1E90121206800F0CF
:1023B0004FFD2068816841F0770109E0CB68D1E9E1
:1023C0000121206800F044FD2068816841F48041CB
:1023D0008160E1E719E0CA684968206800F04AFDB9
:1023E0005021206806E0CA684968206800F053FD63
:1023F0006021206800F036FDCEE7CA684968206891
:1024000000F038FD40212068F4E7226801461046BC
:10241000F0E7704770470000F8B5016804460868A7
:10242000CA684B6910F00F0F4FF000055AD003F047
:10243000010602F49077374365D0C10705D0D10576
:1024400003D5616C41F001016164410705D5D907ED
:1024500003D0616C41F002016164810705D5D907A1
:1024600003D0616C41F004016164010707D502F0FB
:102470002001314303D0616C41F008016164616C5B
:1024800000293BD0800604D5900602D5204600F0F6
:1024900043FD20684069616CC0F3801001F00801C1
:1024A000014320462BD000F010FD20684069400613
:1024B00021D52068143050E8001F21F0400140E889
:1024C0000012002AF5D1E06BA8B16E490165E06BFE
:1024D000FEF721FF002811D0E06B016D01B0BDE8CF
:1024E000F040084783060ED593060CD52046BDE87C
:1024F000F84000F011BD2046FFF78CFFF8BDFFF754
:1025000089FF6564F8BD266B2023012E7DD1C606A8
:102510007BD5D60679D508684868009048694FF0A1
:102520000206400641D5E16B086840680004000CD3
:10253000E8D0A28D8242E5D9E085C869B0F5807FF8
:102540002DD020680C3050E8001F21F4807140E845
:102550000012002AF5D12168143151E8000F20F053
:10256000010041E80002002AF5D12068143050E84B
:10257000001F21F0400140E80012002AF5D184F844
:102580004230256320680C3050E8001F21F0100114
:1025900040E80012002AF5D1E06BFEF773FE666397
:1025A000A08DE18D401A81B22AE0A08DE18D401A04
:1025B00081B2E08D0028A5D00029A3D022680C327A
:1025C00052E8000F20F4907042E80007002FF5D188
:1025D0002068143050E8002F22F0010240E8002764
:1025E000002FF5D184F84230256320680C3050E884
:1025F000002F22F0100240E80023002BF5D1666383
:102600002046FFF706FFF8BDFFE705062BD51506A8
:1026100029D594F841002128F5D1A068B0F5805F54
:1026200001D12069B0B1206A411C21622168007883
:102630004860E08C401E0004000CE084E3D1206878
:10264000C16821F08001C1602068C16841F040018B
:10265000C160D8E7206A0088C0F308004860206A9B
:10266000801C2062E5E74006CDD55006CBD5CA6870
:10267000204622F04002CA6084F8413000F00AF996
:10268000C1E70000BB2E000870B5040004D094F828
:102690004100002510B106E0012070BD84F84050D3
:1026A000204600F023F8242084F841002068C16807
:1026B00021F40051C160204600F090FC20680169BF
:1026C00021F4904101612068416921F02A014161B2
:1026D0002068C16841F40051C1606564202084F81D
:1026E000410084F842006563002070BDF0B587B0FA
:1026F000044614216846FDF79BFD274F23680022FE
:1027000026490224032507262548BB4224D1234B12
:1027100014331F6847F010071F601B6803F0100395
:1027200005930B6843F001030B60096802AB01F0ED
:10273000010105916902CDE9001483E8640069464E
:10274000FEF7A4FF002211462520FFF727FA2520D7
:10275000FFF716FA07B0F0BD124FBB42FAD10F4B8C
:1027600010331F6847F400371F601B6803F4003301
:1027700005930B6843F001030B60096802AB01F09D
:10278000010105910C21CDE9001483E8640069463C
:10279000FEF77CFFDEE70000001001403038024009
:1027A000000002400044004090F84230202B01D04D
:1027B0000220704721B11AB10023036300F094BCDA
:1027C0000120704710B50068074988420AD10748C0
:1027D000007801F08DFBBDE8104001220349044858
:1027E000FFF7E2BF10BD00000010014030000020E4
:1027F000DC0200202DE9F843044690F84100984699
:1028000016460D46202802D00220BDE8F88385B187
:102810007EB100206064212084F84100FFF738F881
:10282000A6848146E684A0682027B0F5805F02D0A8
:1028300003E00120E9E7206910B12E4600250EE0F3
:1028400000260CE08021204600F069FCA8B9C6B142
:1028500016F8010B21684860E08C401EE084E08C93
:102860004B464FF00002CDF800800028EAD14FF02F
:102870004001204600F053FC40B184F84170032031
:10288000C3E735F8020BC0F30800E3E784F84170B2
:102890000020BAE77047FEE770B5084C0025C4F881
:1028A0008052142004F5207401F042F901202060C8
:1028B000142001F03DF9256070BD00000080404209
:1028C00070B5084C0025C4F8B452142004F52D74DA
:1028D00001F02EF901202060142001F029F9256073
:1028E00070BD0000008040420E490020C1F8B002D7
:1028F0000D4A0123C2F89832C1F88402C1F880025F
:10290000C2F89C02C1F88802C1F8A802074BC3F8BC
:102910008002C1F89402C1F89002C1F88C02C2F89A
:10292000A0027047008040420080424200004142C5
:102930001FB500211648009101910291134A03919D
:1029400002604FF48032C0E901210161017680F814
:1029500020101203C26201245210C4618262C1605D
:1029600080F830104461FEF7F7FA08B1FEF7B0F9CD
:102970000520CDE900040620029069460448FEF7D0
:10298000ABF9002801D0FEF7A3F91FBD00200140DC
:102990009C0000207FB50024164800940194029406
:1029A0001349039401604FF48031C0E901140461BC
:1029B000047680F820400903C1620125C5614910F1
:1029C000C460816280F830404561FEF7C5FA08B105
:1029D000FEF77EF906200094CDE9015069460548CE
:1029E000FEF77AF9002801D0FEF772F97FBD0000EA
:1029F00000210140E40000200D4808B5016841F4C1
:102A0000800101600068002200F4800000901146FF
:102A10003820FFF7C3F83820FFF7B2F8002211463C
:102A20003A20FFF7BBF8BDE808403A20FFF7A8B806
:102A3000303802402DE9F04786B014216846FDF792
:102A4000F7FB55480024016841F01001016001685E
:102A500001F010010591016841F020010160016859
:102A600001F020010591016841F0800101600168D9
:102A700001F080010591016841F0040101600168E5
:102A800001F004010591016841F001010160016854
:102A900001F001010591016841F002010160016846
:102AA00001F002010591016841F008010160006830
:102AB0003A4F00F00800059000224FF4FE713846AE
:102AC000FEF7E1FE01224FF4C0613846FEF7DBFE5F
:102AD000DFF8CC8041F60166002231464046FEF721
:102AE000D2FEDFF8C090002243F203414846FEF7D1
:102AF000CAFEDFF8B4A0012204215046FEF7C3FE4F
:102B0000002218215046FEF7BEFE042000904FF42C
:102B100004100125CDE9010569462448FEF7B6FDFC
:102B200040F2FC700090CDE90154694638460394A8
:102B3000FEF7ACFD0096CDE901546946404603948A
:102B4000FEF7A4FD40F203400090CDE90154694630
:102B500048460394FEF79AFD4FF440500326CDE912
:102B60000005CDE9024669464846FEF78FFD1C2068
:102B7000CDE90005CDE9024669465046FEF786FDDF
:102B8000002211460820FFF709F80820FEF7F8FF99
:102B900006B0BDE8F0870000303802400014024063
:102BA0000008024000040240000C024000100240F5
:102BB0000D4810B50B4901600C49416000214FF4EC
:102BC00080428160C0E9031241618161C16101629B
:102BD000FEF764FE002803D0BDE81040FEF778B889
:102BE00010BD000000540040EC010020A086010050
:102BF00010B586B000241748009401940294039401
:102C000004941349059401600321C0E90114532180
:102C1000C0E9031480218161FFF7FCFA08B1FEF7D7
:102C200057F84FF48050009069460A48FFF783FB3D
:102C300008B1FEF74DF82020CDE9040404A90548A9
:102C4000FFF7A0FA002801D0FEF742F806B010BD49
:102C500000040040940200200C4810B50A490160AD
:102C60004FF4E1314160002181600C22C160C0E974
:102C700004128161C161FFF707FD002803D0BDE8A0
:102C80001040FEF725B810BD00100140DC02002006
:102C90000C4810B50A4901604FF4165141600021FB
:102CA00081600C22C160C0E904128161C161FFF73B
:102CB000EBFC002803D0BDE81040FEF709B810BDBA
:102CC0000044004024030020FEE7FEE77047704701
:102CD000FEF7FCBE30B593B030216846FDF7A8FA88
:102CE00014210CA8FDF7A4FA1D480025016841F045
:102CF00080510160006800F080501190194801680F
:102D000041F4804101600068022400F48040119089
:102D10000120039010200490009406940820CDE92F
:102D20000750A820CDE9090404200B906846FFF75E
:102D300053F808B172B6FEE70CA90F2081E8310004
:102D40004FF4A0500F904FF48050109005210CA824
:102D5000FEF756FF002801D072B6FEE713B030BD73
:102D600040380240007000400248016841F47001A0
:102D70000160704788ED00E0F0B50268294C2A4DEB
:102D80002A4E2B4F2B4B4FF0804CA04209D0604570
:102D900007D0A84205D0B04203D0B84201D0984233
:102DA00004D122F0700E4A6842EA0E02A0421BD003
:102DB000604519D0A84217D0B04215D0B84213D000
:102DC000984211D01C4DA8420ED01C4DA8420BD0E9
:102DD0001B4DA84208D01B4DA84205D01A4DA84251
:102DE00002D01A4DA84203D122F44075CA682A4382
:102DF0004D6922F080022A4302608A68C2620A6832
:102E00008262A04201D0984201D109690163012187
:102E100041610169C90703D0016921F00101016124
:102E2000F0BD000000000140000400400008004028
:102E3000000C0040000401400040014000440140FB
:102E40000048014000180040001C004000200040E5
:102E500010B5846842EA032224F47F440A432243E3
:102E6000826010BD826822F070020A4342F00701BE
:102E70008160704710B5036A046A24F0010404629B
:102E8000846924F0F00444EA021423F00A020A439D
:102E90008461026210BD10B5036A046A24F0100454
:102EA0000462846923F0A00324F4704444EA0232EB
:102EB00043EA01118261016210BD10B5806B0021EF
:102EC000C185C184FFF7A6FA10BD01680C3151E835
:102ED000002F22F4907241E80023002BF5D1016805
:102EE000143151E8002F22F0010241E80023002BA9
:102EF000F5D1016B012909D101680C3151E8002F8E
:102F000022F0100241E80023002BF5D1202180F8A7
:102F1000421000210163704708B590F84210222941
:102F200001D0022008BD82684FF480539A4201D13B
:102F3000016921B1816A9A421BD04AB10AE0026854
:102F4000816A5268C2F308020A80816A891C08E01B
:102F5000026972B10268526802F07F020A70816AE7
:102F6000491C8162C18D491E0904090CC18503D029
:102F70001BE002685268F1E70168CA6822F020028B
:102F8000CA600168CA6822F48072CA6001684A692E
:102F900022F001024A61202180F8421000214163A1
:102FA000026B012A03D0FFF70DFC002008BD01636E
:102FB00001680C3151E8002F22F0100241E8002393
:102FC000002BF5D101680A68D20602D50A68496863
:102FD0000091818DFFF71DFAE7E7000070B5044608
:102FE00000680169E26821F44051114301612169DF
:102FF000A068E26908436169114308432168CA680F
:1030000049F20C639A430243CA6020684169A2698D
:1030100021F440711143416131492068884202D056
:103020003049884202D1FEF795FE01E0FEF782FEAC
:10303000E2690023192164253226B2F5004F626847
:1030400028D0A0FB0101930F9200FDF7B9F80146CB
:10305000B0FBF5F06FF01802504301EB800006EB77
:103060000010B0FBF5F000F0F002B1FBF5F002EB60
:103070000012B1FBF5F06FF01803584301EB80002C
:1030800006EB0010B0FBF5F000F00F0021681044D3
:10309000886070BDA0FB010192185B41FDF790F8BC
:1030A0000146B0FBF5F00201B1FBF5F06FF018033B
:1030B000584301EB800006EBC000B0FBF5F000F0D8
:1030C000F80002EB4002B1FBF5F0584301EB800041
:1030D00006EBC000B0FBF5F000F00700D6E70000FB
:1030E000001001400014014081628285C2850021E8
:1030F0004164222180F84210016921B10168CA6847
:1031000042F48072CA6001684A6942F001024A6171
:103110000068C16841F02001C160002070472DE9BE
:10312000F843984617460D460446089E24E0701C56
:1031300022D0FEF7ADFBA0EB0800B0421AD8CEB10A
:103140002068C168490717D5802D15D0402D13D0B0
:103150000168C94309070FD4016800254068009041
:103160002046FFF7B2FE0820606484F8405001203A
:10317000BDE8F8830320FBE72068006835EA00001B
:1031800004D00020B842D2D00020F1E70120F9E7B6
:103190000148FFF741B90000DC020020FEE708B556
:1031A000002140F480500091010A8DF801108DF843
:1031B00002006A4603210620FDF778FB08BD0000E7
:1031C00008B500210091FDF71FF941EC100B0E48E6
:1031D00090ED021B51EC100B53EC112BFDF733F863
:1031E000FDF71FF98DF80300010A8DF80210010C9C
:1031F0008DF80110000E8DF8000004216A46084683
:10320000FDF754FB08BD00002000002008B5002198
:1032100000918DF80100000A8DF800006A46022135
:103220000520FDF743FB08BD0FB4054B10B503A9FE
:10323000044A029800F0DAF810BC5DF814FB0000B4
:10324000653B0008340000200907090E002804DB54
:1032500000F1E02080F80014704700F00F0000F14A
:10326000E02080F8141D704702E008C8121F08C152
:10327000002AFAD170477047002001E001C1121FF7
:10328000002AFBD1704700002DE9FF5FDDE9022035
:10329000010DDDF838B0024318D044F61050A1F209
:1032A000FF3141430D140F98012820D0A5EB0B00EE
:1032B000401C5FEA000A4FF00004474EDFF81C9103
:1032C000A046504616D5CAF1000728E00F98012401
:1032D00043A2012808D0002100980F9BC0E90021DB
:1032E000C0E90243BDE8FF9F6FEA0B01F4E7CBF1B1
:1032F0000000DEE7074612E0F80707D02246334613
:1033000040464946FCF79FFF8046894622463346A1
:1033100010461946FCF797FF04460E467F10002F13
:10332000EAD1DDE90201BAF1000F42464B4602DA6A
:10333000FCF789FF01E0FCF7F8FF04460E46002287
:10334000284BFDF79BF803D84FF0FF30014607E00C
:103350000022254B20463146FDF73AF9FDF7DFF90B
:10336000102409E0002C0ADB0A220023FCF728FFC6
:10337000019B30321A55641E50EA0102F2D1641CDE
:10338000019AC4F1110314440F9A012A03D00122B7
:1033900008430DD10AE0084304D000204FF0110B80
:1033A0000F9080E7A3EB0B056D1E0DE05B4504DD80
:1033B0004FF0000205F1010504E003DA4FF00002CE
:1033C000A5F10105002AECD000980F99C0E902315F
:1033D000C0E9004586E70000000024400000F03FFF
:1033E000300000000000F0430000E03F2DE9FF4FF7
:1033F00095B09B468946064600250FE2252877D1E1
:1034000000242746F84A0121059400E0044316F8F9
:10341000013F203B01FA03F01042F7D130782A280F
:1034200011D06FF02F033078A0F13002092A16D89E
:10343000059A44F0020402EB820203EB42021044BC
:10344000761C0590EFE759F8042B0592002A03DA61
:10345000504244F40054059044F00204761C307845
:103460002E2816D116F8010F44F004042A280DD096
:103470006FF02F023078A0F13003092B09D807EB49
:10348000870302EB4303C718761CF3E759F8047B64
:10349000761C30786C280FD006DC4C2817D06828B2
:1034A0000DD06A2814D104E0742810D07A280FD1E6
:1034B0000DE044F400140AE044F4801401E044F404
:1034C00040147278824202D104F58014761C761C76
:1034D000307866280BD013DC582877D009DC002818
:1034E00075D04528F6D04628F4D047281AD19DE15A
:1034F00018E0632835D0642879D0652812D195E189
:10350000702873D008DC6728F1D069286FD06E2846
:103510000DD06F2806D1B5E073282CD0752875D052
:10352000782874D05A46179990476D1C75E1C4F3FA
:103530000250022809D003280DD0D9F80010042821
:103540000DD00D6009F1040967E1D9F80010EA1700
:10355000C1E90052F6E7D9F800100D80F2E70D70CE
:10356000F0E719F8041B8DF8001000208DF8010019
:10357000EA46012003E059F804AB4FF0FF30610741
:103580004FF0000102D40DE008F101018846B94274
:103590000FDA8045F8DB1AF808100029F4D108E0AA
:1035A00008F1010188468142FADB1AF80810002967
:1035B000F6D105985B46A0EB080721463846179AD6
:1035C00000F094FA284400EB080507E04DE029E1FB
:1035D0000DE01AF8010B5A4617999047B8F1010807
:1035E000F7D25B4621463846179A13E142E00A2299
:1035F0000092C4F302524FF0000A022A08D059F890
:1036000004CB032A4FEAEC710AD00DE029E02AE04E
:1036100009F1070121F00702F2E802C1914609E031
:103620000FFA8CFC4FEAEC71042A03D14FFA8CFCA0
:103630004FEAEC71002907DA0A460021DCF1000CA0
:1036400061EB02012D2202E0220504D52B228DF828
:103650000420012203E0E20701D02022F7E7904690
:1036600059E00A2102E010220DE010214FF0000A7B
:1036700000910BE010224FF0000A44F004040827E8
:10368000009203E008224FF0000A0092C4F30252B5
:10369000022A05D059F804CB0021032A08D009E0FA
:1036A00009F1070121F00702F2E802C1914605E0A5
:1036B0001FFA8CFC042A01D10CF0FF0C4FF000081B
:1036C000220728D5702806D0009B83F0100353EA08
:1036D0000A0305D00EE040228DF80420012208E004
:1036E0005CEA010206D030228DF804208DF8050036
:1036F00002229046009B83F0080353EA0A030AD192
:103700005CEA010201D1620705D530228DF8042060
:103710004FF001087F1E582804D034A003900EA853
:1037200002900DE036A0F9E753466046009AFCF798
:1037300047FD84460398825C0298401E0290027006
:103740005CEA0100F0D1029806A9081A00F1200AEB
:10375000600702D524F4803400E00127574502DDDC
:10376000A7EB0A0000E0002000EB0A01009005989A
:103770004144401A0590E00306D45B462146179A5F
:10378000059800F0B3F90544002706E001A85A4661
:10379000C05D179990476D1C7F1C4745F6DBE00321
:1037A0000CD55B462146179A059800F09FF9054411
:1037B00004E030205A46179990476D1C0099481E26
:1037C00000900029F5DC08E0029802995A4600783A
:1037D000491C0291179990476D1CBAF10001AAF19A
:1037E000010AF1DC65E100000928010030313233C3
:1037F000343536373839616263646566000000002D
:103800003031323334353637383941424344454616
:103810000000000000F058F90544761C30780028BC
:103820007FF4ECAD19B02846BDE8F08F620700D4F4
:10383000062709F1070222F0070CFCE80223E14603
:1038400003F000485FEA080C02D00FF2702C0DE084
:103850005FEA045C02D50FF2682C07E05FEAC47CE3
:1038600002D00FF2602C01E0AFF2700C4FF0FF3885
:1038700023F00043CDF850C065280CD006DC452865
:1038800009D046281DD047283DD13DE0662818D0F4
:1038900067287ED138E00021112F01DB112000E0E4
:1038A000781CCDE9000106A90EA8FFF7EDFCDDE9C3
:1038B0000F010E9A03910021009207F1010A049171
:1038C0004DE04FF000400097CDE9011006A90EA889
:1038D000FFF7DAFCDDE90F0203920E9B119900223B
:1038E000DDF80CA00093049211B9791C00EB010AD9
:1038F000B7EB0A0004D4C0F1FF3007F1010A0490CD
:10390000AAEB0700019044E0012F00DA0127002113
:10391000112F01DD112000E03846CDE9000106A994
:103920000EA8FFF7B1FCDDE90F010E9A039100210B
:1039300004910092BA4621070CD40399514500DA4C
:103940008A46BAF1010F05DD009AAAF10101515C26
:10395000302908D0B84202DA10F1040F06DA01214A
:10396000CDE9011015E0AAF10101E9E7002805DC25
:10397000049901440491AAEB000102E0411C514565
:1039800000DD8A460499401A401C01904FF0004027
:103990000290200704D40198504501DBCDF8048043
:1039A00000208DF84F0002980DF14F07B0F1004F45
:1039B00025D02B200E9002984FF0020800280CDA38
:1039C000404202902D200E9007E00A210298FCF759
:1039D0006DFD3031029007F8011DB8F10001A8F12A
:1039E0000108F2DC02980028EFD1791E0E980870C9
:1039F000307800F0200040F0450007F8020D12A8D2
:103A0000C01B00F107081498007800B1012000EBFA
:103A10000A01019801EBE07105984144401A401EEB
:103A20000590E00306D45B462146179A059800F0FE
:103A30005DF805441498007818B15A4617999047D4
:103A40006D1CE00324D55B462146179A059800F0CB
:103A50004DF805441CE00498002807DBDDE903016C
:103A6000884203DD0098405C179901E017993020E7
:103A70005A469047049805F10105401C04900198AE
:103A8000401E019004D12E205A46179990476D1C74
:103A9000BAF10001AAF1010ADDDC05E017F8010B1B
:103AA0005A46179990476D1CB8F10001A8F101081A
:103AB000F4DC5B462146179A0598ABE62D00000022
:103AC0002B000000200000002DE9F04104460025F5
:103AD0001E461746880404D405E039462020B04726
:103AE0006D1C641EF9D52846BDE8F0812DE9F04132
:103AF000044600251E469046C80301D5302700E045
:103B00002027880404D505E041463846B0476D1C9F
:103B1000641EF9D52846BDE8F081000010B50446C2
:103B20000420FEF70FFB0148046010BD18000020C0
:103B300070B54FF0E024002265690949A36909685E
:103B40004843A1699942FCD002D2A3EB010302E0F1
:103B5000A5EB010633441A440B468242F1D370BDF3
:103B60001800002013B54FF6FF7301226946024882
:103B7000FEF740FE00981CBD240300202DED028BB3
:103B800086B0FDF7ABFFFFF7A5F8FEF753FFFEF792
:103B900033FFFFF761F8FEF7CBFEFFF779F8FFF789
:103BA00027F8FEF7F7FEFFF703F8A820FFF7B6FFA8
:103BB0003220FDF735FDFCF7EFFD3220FDF730FD3B
:103BC000754EDFF8D881764FDFF8D89199F802006A
:103BD0000028FBD1744C02E07448844203D9734836
:103BE0004042211800E00021B44203D96A48404213
:103BF000251800E000251020FCF7E8FF29462020CA
:103C0000FCF7E4FF04A905A8FCF780FF059D4545E6
:103C100002DD0498B8427ADC012189F8021045459A
:103C20000FDC0498B8420CDB2846FCF713FCCDE906
:103C300000015E482146404222185DA0FFF7F4FAD9
:103C400060E00498B8424CDC45454ADBFCF702FCD6
:103C5000CDE90001504821464042221860A0FFF7FC
:103C6000E3FA9DED048AB4F1000A22D06848DFF837
:103C7000A4B1251819E0B44203D94748404221189D
:103C800000E000212020FCF7A1FF694601A8FCF715
:103C90003DFF9DED000AB4EEC80AF1EE10FA02D223
:103CA000B0EE408AA2465C480444AC4201D85C4570
:103CB000E1D918EE100AFCF7CDFBCDE9000136483A
:103CC000514640420AEB0002144654A0FFF7ACFAFA
:103CD000B24501D9214600E000212020FCF776FF03
:103CE00010E0FCF7B7FB82468B462846FCF7B2FB98
:103CF00041EC100B214653EC102B57A0CDE900AB43
:103D0000FFF792FA0598404502DD012201E012E03A
:103D10000022604C4FF400712046FDF7B4FD04987A
:103D2000B84201DD012200E000224FF4806120460C
:103D3000FDF7A9FD1AE0FCF78DFB82468B4628466D
:103D4000FCF788FB41EC100B134853EC102B40425E
:103D500020440090214650A0CDE902ABFFF764FA61
:103D6000594804442B4884427FF636AF99F8020044
:103D700000287FF42BAF55A0FFF756FA454C0022E0
:103D80004FF400712046FDF77EFD002221152046EC
:103D9000FDF779FD1AE7000058F106009A99D93F1E
:103DA000CDCCCC3D0000002000C63E05E044A30081
:103DB000464D20466F756E642061742052463D2545
:103DC0006C7520487A2C20464D3D256C7520487A2C
:103DD0002C2056666D3D252E336620560D0A0000B8
:103DE000414D20466F756E642061742052463D251A
:103DF0006C7520487A2C20414D3D256C7520487A01
:103E00002C2056616D3D252E336620560D0A00008C
:103E100080841E00800D7606A08601005B46696ED8
:103E2000655363616E5D204265737420414D20616E
:103E3000742052463D256C7520487A2C20414D3D1A
:103E4000256C7520487A2C2056616D3D252E3366F1
:103E500020560D0A00000000426F746820464D2075
:103E60002620414D20466F756E64206174205246B5
:103E70003D256C7520487A2C2056666D3D252E33E5
:103E80006620562C2056616D3D252E336620560D3A
:103E90000A0000000014024052463D256C7520487F
:103EA0007A2C2056666D3D252E336620562C2041F7
:103EB0004D203D20256C7520487A2056616D3D25AA
:103EC0002E336620560D0A00400D030053696E67BD
:103ED0006C652D746F6E65206465746563746564CC
:103EE00020286E6F20464D2F414D290D0A000000FD
:103EF0000A4910B58B884FF4FA7293420CD24C8861
:103F00008B1DE0544888401CB0FBF2F302FB130009
:103F100048808888401C888010BD00006C03002009
:103F20000006101600061016000000000000000039
:103F3000010203040607080900000000010203044F
:103F4000603F0008000000203800000068320008D0
:103F5000983F00083800002030090000783200083F
:103F60000000000000000000010000001000000040
:103F7000000000000024F400000000000000000029
:103F80000000D0000000030295D626E80B2E214049
:083F9000000000000000000029
:040000050800018965
:00000001FF
