:020000040800F2
:10000000580800209D010008E72500080F2200087D
:10001000E5250008150B0008492A0008000000002B
:10002000000000000000000000000000EB250008B8
:10003000C50B000800000000E9250008ED250008B8
:10004000B7010008B7010008B7010008B7010008B0
:10005000B7010008B7010008B7010008B7010008A0
:10006000C70B0008B7010008CD0B0008B701000856
:10007000B7010008B7010008B7010008B701000880
:10008000B7010008B701000865070008B7010008BC
:10009000B7010008B7010008B7010008B701000860
:1000A000B7010008B7010008B7010008B701000850
:1000B000B7010008B7010008B7010008B701000840
:1000C000B7010008B7010008B7010008B701000830
:1000D000B70100083D2A0008B7010008B701000871
:1000E000B7010008B7010008B7010008B701000810
:1000F000B7010008B7010008B7010008B701000800
:10010000B7010008B7010008B7010008B7010008EF
:10011000B7010008B7010008B7010008B7010008DF
:10012000190B0008B7010008310B0008B7010008DF
:10013000B7010008B7010008B7010008B7010008BF
:10014000B7010008B7010008B7010008B7010008AF
:10015000B7010008B7010008B7010008B70100089F
:10016000B7010008B7010008B7010008B70100088F
:10017000B7010008B7010008B7010008000000003F
:10018000B7010008B7010008DFF80CD000F038FA1A
:10019000004800479D2B000858080020064880476B
:1001A00006480047FEE7FEE7FEE7FEE7FEE7FEE75C
:1001B000FEE7FEE7FEE7FEE7852600088901000866
:1001C0002DE9F05F0546002092469B46884606468C
:1001D000814640241BE0284641464746224600F01F
:1001E00058F953465A46C01A914110D31146184641
:1001F000224600F03FF92D1A67EB01084F462246D0
:100200000120002100F036F917EB00094E41201EB5
:10021000A4F10104DFDC484631462A464346BDE8E6
:10022000F09FD2B201E000F8012B491EFBD27047CB
:100230000022F6E710B513460A4604461946FFF7B2
:10024000F0FF204610BD2DE9FE4F804681EA0300F5
:10025000C00F0C46009021F0004123F00045B8EBA0
:100260000200A94105D24046214690461C460B4655
:10027000024623F00040104347D0270DC7F30A0081
:10028000C3F30A510290401A019040286BDAC3F37D
:10029000130040F4801B0098924620B10023D2EB5B
:1002A000030A63EB0B0B01985946C0F1400250461C
:1002B00000F0E0F806460D4650465946019A00F017
:1002C000F8F810EB08006141002487EA115284EA33
:1002D000E7731A4340D0009A62B3019A012A4FEAA9
:1002E000075215DC001B61EB02014FF0004202EAED
:1002F0000752CDE90042001C41F5801132462B46E1
:1003000000F02FF903B0BDE8F08F40462146F9E731
:10031000001B61EB0201001C41F5801300185B41DA
:100320002018A2F5001747EB030140EAD570B61973
:100330006D4111E06D084FEA360645EAC0754FEA97
:100340000752001B61EB0201001C41F580114908B6
:100350004FEA30000019514132462B4603B0BDE848
:10036000F04F00F0EFB80098012240000023D0EBDE
:10037000020263EBE073009821464FEAE074B8EBA9
:10038000000061EB0401E9E783F000435BE781F0E3
:10039000004158E70EB5C10F80EAE0700844CA0773
:1003A000002140F233438DE80E000A460B4600F070
:1003B000D8F803B000BD00F0004230F000400AD091
:1003C000C10D01F56071C0F3160042EA0151C20887
:1003D00040071143704700200146704730B5041EA6
:1003E00071F1000404DB4FF00044404264EB010172
:1003F000141E73F1000405DB1C464FF0004352420B
:1004000063EB04038B4208BF824230BD30B5041E4B
:1004100071F1000404DB4FF00044404264EB010141
:10042000141E73F1000405DB1C464FF000435242DA
:1004300063EB0403994208BF904230BD01F00043D2
:1004400030B421F0004150EA010206D00A0DA2F5B5
:100450006072C1F31301002A02DC30BC0020704737
:10046000440F44EAC104C100E01830BC00EBC250A4
:1004700000F031B8202A04DB203A00FA02F1002013
:1004800070479140C2F1200320FA03F319439040D2
:100490007047202A04DB203A21FA02F0002170473D
:1004A00021FA02F3D040C2F12002914008431946DC
:1004B0007047202A06DBCB17203A41FA02F043EAC4
:1004C000E07306E041FA02F3D040C2F1200291400D
:1004D0000843194670470029A8BF7047401C4900CF
:1004E00008BF20F00100704710B4B0FA80FC00FA99
:1004F0000CF050EA010404BF10BC704749B1CCF1C4
:10050000200421FA04F411FA0CF118BF012121434F
:100510000843A3EB0C01CB1D4FEA00614FEA10200A
:1005200042BF002010BC704700EBC35010440029AC
:10053000A4BF10BC7047401C490008BF20F0010058
:1005400010BC704710B5141E73F1000408DA401C8B
:1005500041F1000192185B411A4301D120F00100E2
:1005600010BD2DE9F04D92469B4611B1B1FA81F2D2
:1005700002E0B0FA80F220329046FFF77BFF04469B
:100580000F4640EA0A0041EA0B0153465A46084327
:1005900013D0114653EA010019D0C8F14002504669
:1005A000FFF777FF05460E46504659464246FFF78D
:1005B00061FF084305D0012004E020463946BDE82C
:1005C000F08D0020054346EAE0762C4337430A9835
:1005D0006305E40AA0EB08000022FD0A44EA475440
:1005E0000A3002D500200146E9E7010510196941EA
:1005F000DDE9084500196941BDE8F04DA2E70000BA
:10060000064C074D06E0E06840F0010394E807005F
:1006100098471034AC42F6D3FFF7BAFDA02C00087F
:10062000C02C000870B5284886B00025016841F04C
:1006300002010160016801F002010591016841F0C9
:1006400004010160016801F004010591016841F0B5
:10065000200101600068012400F0200005904FF4A3
:10066000E070CDE90004032669460396174800F0C0
:1006700081FE43F23C000396CDE90004144E694626
:10068000304600F077FE40F20340CDE900046946B1
:100690000395304600F06EFE009469460D480395C0
:1006A000019400F067FE01F0C9FD01F0B1FD0A4AB6
:1006B0000321012000F012F8074A0221921E084689
:1006C00000F00CF806B070BD303802400014024053
:1006D000000402400008024022000020F0B51F4B39
:1006E00000252C46C3F88452DFF874E0CEF8985207
:1006F0005FF00107C3F88442060602D5C3F894727E
:1007000001E0C3F89442C3F8847240066D1C000EE9
:10071000EDB2082DEED3C3F88442002018E0165C39
:100720005FF00005C3F884425FEA066C02D5C3F8A7
:10073000947201E0C3F89442C3F8847276066D1C8B
:10074000360EEDB2082DEDD3C3F88442401CC0B282
:100750008842E4D3CEF89872F0BD00000080404299
:100760000080424210B5044800F0DEFABDE81040B7
:10077000024800F0D9BA0000340000207C000020BC
:10078000464910B54A6822F440324A604A684368D4
:100790001A434A6001684A6822F480724A6001681C
:1007A0004A68036942EA03224A6001684A6822F003
:1007B00040724A6001684A6883681A434A60016867
:1007C0008A6822F400628A6001688A68C3681A43F2
:1007D0008A60816A6FF07062D14201688A6822F093
:1007E00070628A6001688A680CD0836A1A438A60E2
:1007F00001688A6822F040528A6001688A68C36A88
:100800001A4301E022F040528A6001688A6822F0AF
:1008100002028A6001688A68037E42EA43028A60B3
:1008200090F82010002901684A680FD042F4006255
:100830004A6001684A6822F460424A6001684A6876
:10084000174C436A04EB43331A4301E022F400627D
:100850004A600168CA6A22F47002CA620168CA6A00
:10086000838B104C04EB03531A43CA6201688A68F5
:1008700022F400728A6001688A6890F8303042EA97
:1008800043228A6001688A6822F480628A60016873
:100890008A68406942EA8020886010BD00230140D8
:1008A00000E0FFFF0000F0FF38B50024009400F0E6
:1008B0000FF98DF8034058208DF802008DF80140A3
:1008C00005208DF800006946042002F0D1F88DF86B
:1008D0000340EC208DF8020080258DF801503C206B
:1008E0008DF800006946042002F0C2F88DF803403C
:1008F0008DF8024004208DF80100B3208DF800002F
:100900006946042002F0B4F88DF8034001208DF808
:1009100002000E208DF8010042208DF8000069468B
:10092000042002F0A5F88DF803408DF802408DF800
:10093000015029208DF800006946042002F098F843
:100940008DF803402C208DF802008DF801501820FE
:100950008DF800006946042002F08AF838BD0000D6
:100960002DE9F04710EE100A4E4A01252DED048BBB
:10097000002690424C4902DA9FED4C0A05E010EE49
:10098000100A884201DD9FED4A0AF2EE040A4FF494
:100990007A7420EE200A0027BCEEC00AB8EE400AA6
:1009A00080EE208ABCEEC80A10EE100A1FFA80F80A
:1009B0009FED409B08FB05F0FFF7ECFC8A464AECF4
:1009C000100B814653EC192B51EC100BFFF71EFD59
:1009D0000AD84AEC109B9FED391B51EC100B53ECDD
:1009E000112BFFF7FBFC09D9761C7F1C4FF6FF701B
:1009F000BFB2B6B200EA45050A2FDBD300EE105AAB
:100A0000B3EE091A0521B8EE400A68EE000A80EE3E
:100A1000810AFCEEC00A10EE900ADFED2A0A82B2CB
:100A200020EE200ABCEEC00A10EE100AB0FBF4F370
:100A300004FB130004E000BFB0FBF1F0B4FBF1F4E1
:100A4000B0FBF1F301FB130343B9B4FBF1F301FB7A
:100A50001343002BF0D001E04008640840EA040191
:100A6000C907F9D00721B6FBF1F3D20301FB1361EB
:100A700002EBC00548F2010000EBC406124800EB8F
:100A80000154124801F0E1FF284601F0DEFF304634
:100A900001F0DBFFBDEC048B2046BDE8F04701F020
:100AA000D4BF000000000C420080894500000C42C9
:100AB00000808945CDCCCCCCCC2FA1409A99999976
:100AC0001930B14000007A443C808C001C80EC005E
:100AD00000B587B014216846FFF7AAFB0B48002138
:100AE000026842F004020260006800F00400059011
:100AF0004FF4F05000900120CDE901010220039055
:100B00006946034800F036FC07B000BD30380240AB
:100B100000080240FEE7000010B5034800F0ACFA00
:100B200002490120087010BDC40000200000002010
:100B300010B5034800F0A0FA02490120087010BD6A
:100B4000240100200100002001681823CAB2103AD5
:100B5000B2FBF3F2054B6FF30901032A9B5CC365FB
:100B600000D9091D8165084670470000802C0008E7
:100B700010B5014600208B698A6A4FF0C07453B1EA
:100B8000B3F5005F15D072B1012A0CD0022A0AD049
:100B9000032A09D104E01AB1012A06D0022A03D19E
:100BA000C96AC90100D5012010BDC96AA142FAD0A5
:100BB00010BD002AF7D0012AF2D0022AF3D0032A6E
:100BC000F3D010BD7047042000F0C8BB102000F027
:100BD000C5BB72B6FEE7704778B50024009490F864
:100BE0003C20012A19D0012280F83C200A68072302
:100BF0000568092A13D9EE680A3A02EB42029340CB
:100C00009E43EE600B788A680A3B03EB43039A40ED
:100C10000368DD682A43DA6010E0022078BD2E699F
:100C200002EB420293409E432E610B788A6803EBED
:100C300043039A4003681D692A431A614A681F23C7
:100C4000072A13D205686E6B521E02EB8202934094
:100C50009E436E630B790A885B1E92B203EB83039B
:100C60009A4003685D6B2A435A6327E005680D2AA2
:100C700012D22E6BD21F02EB820293409E432E6350
:100C80000B790A88DB1F92B203EB83039A40036857
:100C90001D6B2A431A6311E0EE6A0D3A02EB8202E1
:100CA00093409E43EE620B790A880D3B92B203EBB0
:100CB00083039A400368DD6A2A43DA62164B0568AB
:100CC000144A9D4206D10D68122D03D1556845F492
:100CD0008005556005689D4218D10B68102B01D026
:100CE000112B13D1536843F4000353600968102992
:100CF0000CD10A490A4A0968B1FBF2F101EB810102
:100D0000490000E0491E00910029FBD180F83C40D9
:100D1000002078BD00230140002001401800002081
:100D200040420F007047704770B50446006806687F
:100D3000456816F0020F05F020012AD049B3216C56
:100D4000C90603D4216C41F400712164816811F05B
:100D5000405F17D1217EA9B9C16A11F4700F02D08A
:100D6000816849050ED4416821F020014160206C62
:100D700020F480702064206CC00403D4206C40F008
:100D8000010020642046FFF7CDFF21686FF01200BC
:100D9000086016F0040F05F0800132D089B3206C92
:100DA000C00603D4206C40F40050206420688168A1
:100DB00011F4401F1ED1816B11F4401F02D08168D5
:100DC000490517D44168490514D4816811F0405F82
:100DD00010D1217E71B9416821F080014160206C01
:100DE00020F480502064206CC00503D4206C40F0B7
:100DF000010020642046FFF7EEFE21686FF00C0032
:100E0000086016F0010F05F040010FD071B12068A5
:100E10000068C0070AD0206C40F48030206420466F
:100E200000F043F821686FF00100086016F0200F11
:100E300005F080610ED000290CD0606C40F00200FB
:100E4000606420686FF0200505602046FFF76BFFA7
:100E50002068056070BD70B504004FF0000503D038
:100E6000206C002610B107E0012070BD204600F084
:100E70001DF8666484F83C60206CC00610D4206CB9
:100E800020F4885040F0020020642046FFF778FCF0
:100E90006664206C20F0020040F00100206400E055
:100EA000012584F83C60284670BD70472DE9F04369
:100EB00087B0064614216846FFF7BAF93B48DFF8C9
:100EC000E8C014383568002438490323384A071528
:100ED0004FF400684FF40059654531D10D6845F471
:100EE00080750D60096801F480710591016841F019
:100EF000010101600068694600F0010005902020B2
:100F00008DE81900104600F035FA2B4D294805F1FF
:100F10000C0CC5E90004AC608CE89003EC612C6219
:100F200028466C6238E0B563002211461220AE6399
:100F300000F090FB122000F07FFB07B0BDE8F083CB
:100F4000DFF878C06545F8D10D6845F400750D608F
:100F5000096801F400710591016841F00101016027
:100F60000068694600F00100059001208DE8190035
:100F7000104600F0FFF9104D0E4860353030286003
:100F80004FF00070C5E9010405F10C0C28468CE80F
:100F90009003EC612C626C6200F03EF90028C2D034
:100FA000FFF717FEBFE70000002001404438024071
:100FB0000000024010640240C400002000210140F3
:100FC0002DE9F0410446876D00F0D6FA064694F804
:100FD00035000025022806D08020606584F8345052
:100FE0000120BDE8F0812068016821F01601016050
:100FF0002068416921F080014161206C08B9A06C32
:1010000020B12068016821F00801016020680168B2
:1010100021F0010101600CE000F0AEFA801B052810
:1010200007D920206065032084F8350084F8345007
:10103000D7E720680068C007EED194F85C103F2025
:101040008840B860012084F8350084F834500020CE
:10105000C7E790F83510022903D0802141650120AF
:101060007047052180F835100068016821F0010102
:1010700001600020704700002DE9F84304464FF05E
:101080000009CDF8009063484FF41651A56D006833
:10109000B0FBF1F72E6894F85C10082000FA01F11B
:1010A00031420FD021680A6852070BD50A6822F036
:1010B00004020A6094F85C108840A860606D40F0FB
:1010C0000100606594F85C104FF0010808FA01F027
:1010D000304208D021684969090604D5A860606DCE
:1010E00040F00200606594F85C10042088403042B3
:1010F00008D021680968890704D5A860606D40F0B0
:101100000400606594F85C1010208840304218D0CC
:1011100021680968090714D5A86020680168490397
:1011200004D50068000308D5A16C07E00168C90573
:1011300003D4016821F008010160216C09B1204647
:10114000884794F85C1020208840304231D02168D4
:101150000968C9062DD5A86094F8350005282068CF
:10116000016806D0490347D5006800031DD4616CAF
:101170001CE021F0160101602068416921F0800126
:101180004161206C08B9A06C20B12068016821F091
:101190000801016094F85C103F208840A86084F842
:1011A000358084F83490216D1FE0E16B09B1204651
:1011B0008847606D00282BD0606DC00714D00520D3
:1011C00084F835002068016821F001010160009871
:1011D000401C0090B84203D820680068C007F6D1D0
:1011E00084F8358084F83490E16C002910D001B087
:1011F0002046BDE8F04308470168C905D5D4016819
:1012000021F01001016084F8358084F83490CCE737
:10121000BDE8F883180000202DE9F041044600F0F5
:10122000ABF906465CB1022084F83500002584F84D
:1012300034502068016821F0010101600DE00120B7
:10124000BDE8F08100F098F9801B052805D9202021
:101250006065032084F83500F2E720680068C00765
:10126000F0D12268116820480140D4E901031843F5
:10127000D4E903363343184363691843A369184319
:10128000E3691843236A18430843616A042903D1B8
:10129000D4E90B1319430843106020684069666A5B
:1012A00020F0070130460E43012704280CD1A06A24
:1012B0000643E06A40B12046FFF75AFC20B14020C7
:1012C000606584F83570BAE7206846612046FFF70C
:1012D0003BFC94F85C203F2191408160656584F877
:1012E00035700020ACE700003F8010F070B5044678
:1012F00000F042F90546601C02D00448007804441E
:1013000000F03AF9401BA042FAD370BD0C00002057
:1013100070B5104E104C04280ED010280BD100F0E0
:101320002BF905466068281A322803D91021304667
:1013300000F018F9656070BD00F01EF905462068E0
:10134000281A322803D90421304600F00BF9256011
:1013500070BD00000010024004000020044910B5D8
:101360000A68024202D00860FFF7D2FF10BD0000F9
:10137000143C01402DE9F84FDFF8BCA10022012503
:1013800003264FF00F090AF1040BAAF1040E00BF67
:101390000B6805FA02F42340A34270D10F7907F0DD
:1013A0000307012F01D0022F16D187684FEA4208A8
:1013B00006FA08FC27EA0C07D1F80CC00CFA08FC66
:1013C0004CEA070CC0F808C04768A7430C79C4F37F
:1013D000001494403C4344600C79E443A4070AD0D1
:1013E000C4684FEA420C06FA0CF7BC438F6807FA50
:1013F0000CF72743C7600C7904F00304022C12D1C8
:10140000D40800EB840CDCF820405707FF0E09FAE3
:1014100007F824EA0804D1F8108008FA07F848EA27
:101420000408CCF8208004684FEA420C06FA0CF756
:10143000BC430F7907F0030707FA0CF7274307604F
:101440004C6814F4403F70D03C4C276847F4804708
:101450002760246822F0030704F480440094384C89
:1014600007EB040CDCF8084897074FEA177809FAED
:1014700008F7BC43334FB84202D1002724E054E0C0
:10148000314FB84201D101271EE0304FB84201D19F
:10149000022719E02E4FB84201D1032714E02D4F47
:1014A000B84201D104270FE02B4FB84201D10527E4
:1014B0000AE02A4FB84201D1062705E0284FB8427A
:1014C00001D1072700E0082707FA08F72743CCF8DF
:1014D0000878DAF800405746D1F804C09C435FEA28
:1014E000CC2C00D51C433C60DBF800405F46D1F8B3
:1014F00004C09C435FEA8C2C00D51C433C60DEF8A2
:1015000000407746D1F804C09C435FEA8C3C00D58C
:101510001C433C60084F083F3C68D1F804C09C4322
:101520005FEACC3C00D51C433C60521C102AFFF4FF
:101530002FAFBDE8F88F0000083C0140443802405E
:101540000030014000000240000402400008024058
:10155000000C02400010024000140240001802403B
:10156000001C02400069084000D0012070470AB109
:10157000816170470904FBE70148806870470000FB
:101580000C00002002488168027811448160704795
:101590000C0000200B4810B5016841F40071016097
:1015A000016841F480610160016841F4807101606B
:1015B000032000F06FF8002000F006F800F024F897
:1015C000002010BD003C024070B50D4D04464FF4A4
:1015D0007A712878B1FBF0F00A490968B1FBF0F0A4
:1015E00000F018FB48B9102C07D200222146501EEB
:1015F00000F030F800206C6070BD012070BD00006C
:101600000C000020180000200A4808B5016841F4C9
:1016100080410160006800F4804000900548001F90
:10162000016841F080510160006800F08050009036
:1016300008BD000044380240002809DB00F01F020A
:10164000012191404009800000F1E020C0F8001124
:1016500070470000F0B40E4B1B680C46C3F3022326
:10166000C3F10705042D00D90425191D072901D24E
:10167000002300E0DB1E012606FA05F1491E214089
:1016800099409E40761E16403143F0BC01F03ABAB4
:101690000CED00E0064900F0070208684FF6FF0372
:1016A000184040EA0220034A1043086070470000D7
:1016B0000CED00E00000FA052DE9F0470E460500AC
:1016C00065D0DFF81481D8F80000F7B200F0070009
:1016D000B04207D288F80070D8F8000000F0070088
:1016E000B04254D128683D4C810712D5400703D53C
:1016F000206840F4E05020602878000703D5206877
:1017000040F4604020602068A96820F0F0000843A1
:1017100020602878C0072DD0304968680839012832
:1017200012D0022813D0032811D009688907002994
:101730002DDA216821F0030101432160FFF71CFF2E
:10174000814641F2883A0EE009688903EFE70968AB
:101750008901ECE7FFF710FFA0EB0901514502D921
:101760000320BDE8F0872068696800F00C00B0EB4A
:10177000810FEFD1D8F80010404601F00701B142C7
:1017800007D90770006800F00700B04201D00120BF
:10179000E7E72878400705D52068E96820F4E0509D
:1017A000084320602878000706D52068296920F4BE
:1017B000604040EAC100206000F038F82168084A23
:1017C000C1F30311515CC84006490860064800682F
:1017D000FFF7FAFE0020C4E7003C02400838024050
:1017E000882C00081800002010000020044805493B
:1017F00000680968044AC1F38221515CC8407047FF
:101800001800002008380240982C000804480549B8
:1018100000680968044AC1F34231515CC84070470E
:101820001800002008380240982C0008154810B510
:10183000006810F00C02144813D01449042A0FD089
:10184000082A0ED10F4C241F2268236802F03F02A1
:101850005B0207D52068C0F38810A0FB010106E0F9
:10186000084610BD2168C1F38811A1FB00010023C7
:10187000FEF7A6FC2168C1F30141491C4900B0FBF9
:10188000F1F010BD083802400024F40040787D01DA
:101890002DE9F84F04006ED02078DFF84C93C00794
:1018A000A9F104054AD009F104000168C1F38101DE
:1018B000012908D00068C0F3810002280AD1D9F8B4
:1018C0000000400206D52868800337D560680028EC
:1018D000E1D033E06068B0F5803F10D0B0F5A02FC4
:1018E000286810D020F480302860286820F48020F8
:1018F00028606068A8B1FFF73FFE06460DE0286843
:1019000040F48030F4E740F480202860F7E700BF1F
:10191000FFF732FE801B642873D828688003F7D550
:101920000CE0FFF729FE064605E000BFFFF724FEA6
:10193000801B6428F0D828688003F7D42078DFF86B
:10194000AC8280074FF0000A3ED5A748001D016811
:1019500011F00C0F08D00068C0F3810002280BD1F1
:10196000D9F80000400207D42868800716D5E0683F
:10197000012800D112E033E1E068B8B10120C8F8D5
:101980000000FFF7F9FD064605E000BFFFF7F4FD94
:10199000801B0228C0D828688007F7D528682169ED
:1019A00020F0F80040EAC10028600DE0C8F800A06F
:1019B000FFF7E2FD064604E0FFF7DEFD801B02288C
:1019C0001FD828688007F7D42078000722D5864FD3
:1019D00087486169703771B101210160FFF7CCFD63
:1019E000064604E0FFF7C8FD801B022809D83868C6
:1019F0008007F7D50EE0C0F800A0FFF7BDFD064652
:101A000005E082E0FFF7B8FD801B02287DD838682A
:101A10008007F7D42078400768D5DFF8CCB10027DD
:101A20000BF13C0BDBF80000C0000BD4DBF800101E
:101A300041F08051CBF80010DBF80000012700F0E6
:101A4000805000906B4E3068C00510D4306840F470
:101A500080703060FFF790FD009005E0FFF78CFD8F
:101A60000099401A022850D83068C005F6D55E4E5D
:101A7000A0686C3601280FD00528306810D020F0FF
:101A800001003060306820F004003060A068B8B118
:101A9000FFF772FD00900FE0306840F00100F4E7BE
:101AA00040F004003060F7E7FFF766FD0099411A47
:101AB00041F28830814266D830688007F4D50EE064
:101AC000FFF75AFD009007E0FFF756FD0099411A15
:101AD00041F28830814256D830688007F4D42FB163
:101AE000DBF8001021F08051CBF80010A069C8B3DA
:101AF0003D49091D0968C1F3810102294AD0022824
:101B0000504607D0C8F8600000E03CE0FFF734FD25
:101B100004463BE04746C8F86000FFF72DFD064647
:101B200005E000BFFFF728FD801B02282BD828689E
:101B30008001F7D4D4E907010843A16A2E4A490875
:101B400002EB0141626A41EA8211084394F82C10C9
:101B500040EA0161C9F8001001203866FFF70CFD6A
:101B6000044606E03EE000BFFFF706FD001B02282A
:101B700009D828688001F7D534E000BFFFF7FCFCE6
:101B8000001B022802D90320BDE8F88F28688001D5
:101B9000F4D427E00128F7D0D9F80000E26900F476
:101BA000800191421CD1226A00F03F01914217D17D
:101BB00047F6C071626A0140B1EB821F10D1A26A80
:101BC0004FF0FF3300F4403103EB5202B1EB024F10
:101BD00006D194F82C1000F07060B0EB016F01D0CA
:101BE0000120D1E70020CFE704380240000047423F
:101BF000800E4742007000400000FFFF4FF0E021E0
:101C00000428086903D020F004000861704740F000
:101C10000400FAE710B5401EB0F1807F01D3012027
:101C200010BD4FF0E02460610F21601700F06AFFE3
:101C30000020A06107202061002010BD70B590F841
:101C40003C20012A32D0012480F83C40022280F856
:101C50003D2003685A689D6822F070060A68324386
:101C60005A60134B02689A4214D0B2F1804F11D0DF
:101C7000104B9A420ED0104B9A420BD00F4B9A4207
:101C800008D00F4B9A4205D00E4B9A4202D00E4B11
:101C90009A4204D1496825F080031943916080F885
:101CA0003D40002180F83C10084670BD022070BD08
:101CB000000001400004004000080040000C00400B
:101CC00000040140004001400018004010B504002D
:101CD00003D094F83D0010B107E0012010BD0020B2
:101CE00084F83C00204600F01FF8022084F83D00F4
:101CF000211D206800F0CEFC012084F8460084F805
:101D00003E0084F83F0084F8400084F8410084F8E5
:101D1000420084F8430084F8440084F8450084F8C5
:101D20003D00002010BD000008B50068064988424B
:101D300008D10648016841F002010160006800F026
:101D40000200009008BD000000040040403802403E
:101D500070B5044690F83C000025012817D00126F4
:101D600084F83C60022084F83D002068826822F0FC
:101D7000770222F47F4282600868502838D00DDC58
:101D800020284FD005DC90B3102811D14AE0022062
:101D900070BD302846D040280AD13BE060282FD0C3
:101DA00070280DD0B0F5805F03D0B0F5005F12D081
:101DB000012584F83D60002084F83C00284670BD71
:101DC000CB68D1E90121206800F0D0FC206881684F
:101DD00041F0770109E0CB68D1E90121206800F0EA
:101DE000C5FC2068816841F480418160E1E719E029
:101DF000CA684968206800F0CBFC5021206806E0E2
:101E0000CA684968206800F0D4FC6021206800F0AE
:101E1000B7FCCEE7CA684968206800F0B9FC4021E9
:101E20002068F4E7226801461046F0E770477047E3
:101E3000F8B5016804460868CA684B6910F00F0FCE
:101E40004FF000055AD003F0010602F490773743B3
:101E500065D0C10705D0D10503D5616C41F0010102
:101E60006164410705D5D90703D0616C41F00201D7
:101E70006164810705D5D90703D0616C41F0040185
:101E80006164010707D502F02001314303D0616C82
:101E900041F008016164616C00293BD0800604D5E3
:101EA000900602D5204600F0C5FC20684069616CB0
:101EB000C0F3801001F00801014320462BD000F050
:101EC00092FC20684069400621D52068143050E813
:101ED000001F21F0400140E80012002AF5D1E06B1C
:101EE000A8B16E490165E06BFFF7B3F8002811D087
:101EF000E06B016D01B0BDE8F040084783060ED5E8
:101F000093060CD52046BDE8F84000F093BC20466F
:101F1000FFF78DFFF8BDFFF78AFF6564F8BD266BFC
:101F20002023012E7DD1C6067BD5D60679D508683B
:101F30004868009048694FF00206400641D5E16BC1
:101F4000086840680004000CE8D0A28D8242E5D900
:101F5000E085C869B0F5807F2DD020680C3050E84E
:101F6000001F21F4807140E80012002AF5D1216899
:101F7000143151E8000F20F0010041E80002002A6E
:101F8000F5D12068143050E8001F21F0400140E8EE
:101F90000012002AF5D184F84230256320680C3005
:101FA00050E8001F21F0100140E80012002AF5D18E
:101FB000E06BFFF705F86663A08DE18D401A81B2F2
:101FC0002AE0A08DE18D401A81B2E08D0028A5D0D5
:101FD0000029A3D022680C3252E8000F20F4907040
:101FE00042E80007002FF5D12068143050E8002F98
:101FF00022F0010240E80027002FF5D184F842309A
:10200000256320680C3050E8002F22F0100240E8D1
:102010000023002BF5D166632046FFF707FFF8BDCC
:10202000FFE705062BD5150629D594F84100212890
:10203000F5D1A068B0F5805F01D12069B0B1206A08
:10204000411C2162216800784860E08C401E000439
:10205000000CE084E3D12068C16821F08001C160F8
:102060002068C16841F04001C160D8E7206A00885B
:10207000C0F308004860206A801C2062E5E7400643
:10208000CDD55006CBD5CA68204622F04002CA60A2
:1020900084F8413000F0BAF8C1E70000D727000803
:1020A00070B5040004D094F84100002510B106E09A
:1020B000012070BD84F84050204600F023F8242011
:1020C00084F841002068C16821F40051C1602046B5
:1020D00000F012FC2068016921F490410161206840
:1020E000416921F02A0141612068C16841F4005131
:1020F000C1606564202084F8410084F84200656373
:10210000002070BDF0B587B0044614216846FEF784
:102110008FF8274F2368002226490224032507262B
:102120002548BB4224D1234B14331F6847F01007C6
:102130001F601B6803F0100305930B6843F0010355
:102140000B60096802AB01F0010105916902CDE95C
:10215000001483E864006946FFF70CF90022114679
:102160002520FFF777FA2520FFF766FA07B0F0BDC4
:10217000124FBB42FAD10F4B10331F6847F40037A0
:102180001F601B6803F4003305930B6843F00103E1
:102190000B60096802AB01F0010105910C21CDE94A
:1021A000001483E864006946FFF7E4F8DEE7000006
:1021B000001001403038024000000240004400405E
:1021C00090F84230202B01D00220704721B11AB183
:1021D0000023036300F016BC0120704710B50068AF
:1021E000074988420AD10748007800F031FDBDE870
:1021F0001040012203490448FFF7E2BF10BD000070
:102200000010014030000020CC0100207047FEE7A4
:1022100070B5094C0025C4F8B4524FF4FA66304644
:1022200004F52D7400F098FC01202060304600F089
:1022300093FC256070BD0000008040420E490020E4
:10224000C1F8B0020D4A0123C2F89832C1F88402E5
:10225000C1F88002C2F89C02C1F88802C1F8A80245
:10226000074BC3F88002C1F89402C1F89002C1F88C
:102270008C02C2F8A00270470080404200804242B7
:10228000000041421FB500211648009101910291C2
:10229000134A039102604FF48032C0E901210161C9
:1022A000017680F820101203C26201245210C4612A
:1022B0008262C16080F830104461FEF7CCFD08B145
:1022C000FEF787FC0520CDE9000403200290694653
:1022D0000448FEF781FC002801D0FEF77AFC1FBD00
:1022E00000200140340000207FB5002416480094EF
:1022F000019402941349039401604FF48031C0E9C2
:1023000001140461047680F820400903C1620125AC
:10231000C5614910C460816280F830404561FEF7B4
:102320009AFD08B1FEF755FC03200094CDE9015059
:1023300069460548FEF750FC002801D0FEF749FC2D
:102340007FBD0000002101407C0000200D4808B541
:10235000016841F4800101600068002200F48000FF
:10236000009011463820FFF775F93820FFF764F91F
:10237000002211463A20FFF76DF9BDE808403A20E7
:10238000FFF75AB9303802402DE9F04F87B01421D9
:102390006846FDF74DFF56480024016841F01001E2
:1023A0000160016801F010010591016841F0200110
:1023B0000160016801F020010591016841F0800190
:1023C0000160016801F080010591016841F004019C
:1023D0000160016801F004010591016841F001010B
:1023E0000160016801F001010591016841F00201FD
:1023F0000160016801F002010591016841F00801E6
:1024000001600068DFF8EC8000F0080040F2FC7624
:102410000590002231464046FFF7A9F8DFF8D89032
:1024200041F60167002239464846FFF7A0F8DFF879
:10243000CCA0002243F203415046FFF798F8DFF8A2
:10244000C0B0012204215846FFF791F8002218215C
:102450005846FFF78CF8142000904FF40410012523
:10246000CDE9010569462748FEF784FF0096CDE9CE
:102470000154694640460394FEF77CFF0097CDE97E
:102480000154694648460394FEF774FF40F2034046
:102490000090CDE90154694650460394FEF76AFF67
:1024A0004FF440500326CDE90005CDE902466946C8
:1024B0005046FEF75FFF1C20CDE90005CDE902463E
:1024C00069465846FEF756FF002211460820FFF7DE
:1024D000C1F80820FFF7B0F8002211460A20FFF7E4
:1024E000B9F80A20FFF7A8F807B0BDE8F08F0000A0
:1024F000303802400014024000080240000402404C
:10250000000C02400010024010B586B000241848AC
:102510000094019402940394049414490594016076
:102520003121C0E9011440F24731C0E90314802190
:102530008161FFF7CBFB08B1FEF74BFB4FF48050F6
:10254000009069460A48FFF703FC08B1FEF741FB1B
:102550002020CDE9040404A90548FFF76FFB0028FB
:1025600001D0FEF736FB06B010BD000000040040AD
:10257000840100200C4810B50A4901604FF4E13194
:102580004160002181600C22C160C0E904128161B8
:10259000C161FFF785FD002803D0BDE81040FEF7BC
:1025A00018BB10BD00100140CC0100200C4810B534
:1025B0000A4901604FF416514160002181600C22EC
:1025C000C160C0E904128161C161FFF769FD0028A3
:1025D00003D0BDE81040FEF7FCBA10BD0044004037
:1025E00014020020FEE7FEE770477047FEF7CABFFF
:1025F00030B593B030216846FDF71AFE14210CA8BF
:10260000FDF716FE1D480025016841F0805101606C
:10261000006800F0805011901948016841F4804131
:1026200001600068022400F48040119001200390B2
:1026300010200490009406940820CDE90750A820AB
:10264000CDE9090404200B906846FFF721F908B191
:1026500072B6FEE70CA90F2081E831004FF4A050BC
:102660000F904FF48050109005210CA8FFF724F82C
:10267000002801D072B6FEE713B030BD40380240EA
:10268000007000400248016841F470010160704729
:1026900088ED00E0F0B50268294C2A4D2A4E2B4FF8
:1026A0002B4B4FF0804CA04209D0604507D0A84288
:1026B00005D0B04203D0B84201D0984204D122F0F4
:1026C000700E4A6842EA0E02A0421BD0604519D043
:1026D000A84217D0B04215D0B84213D0984211D0BA
:1026E0001C4DA8420ED01C4DA8420BD01B4DA84239
:1026F00008D01B4DA84205D01A4DA84202D01A4D51
:10270000A84203D122F44075CA682A434D6922F0D9
:1027100080022A4302608A68C2620A688262A0421A
:1027200001D0984201D10969016301214161016928
:10273000C90703D0016921F001010161F0BD00006A
:10274000000001400004004000080040000C004070
:1027500000040140004001400044014000480140A5
:1027600000180040001C00400020004010B58468A4
:1027700042EA032224F47F440A432243826010BDCC
:10278000826822F070020A4342F0070181607047BC
:1027900010B5036A046A24F001040462846924F019
:1027A000F00444EA021423F00A020A43846102623C
:1027B00010BD10B5036A046A24F010040462846931
:1027C00023F0A00324F4704444EA023243EA0111E6
:1027D0008261016210BD10B5806B0021C185C1848A
:1027E000FFF725FB10BD01680C3151E8002F22F4E2
:1027F000907241E80023002BF5D10168143151E8B3
:10280000002F22F0010241E80023002BF5D1016BDB
:10281000012909D101680C3151E8002F22F0100282
:1028200041E80023002BF5D1202180F8421000213F
:102830000163704708B590F84210222901D00220A8
:1028400008BD82684FF480539A4201D1016921B1D9
:10285000816A9A421BD04AB10AE00268816A5268D2
:10286000C2F308020A80816A891C08E0026972B119
:102870000268526802F07F020A70816A491C816214
:10288000C18D491E0904090CC18503D01BE00268F3
:102890005268F1E70168CA6822F02002CA60016844
:1028A000CA6822F48072CA6001684A6922F0010293
:1028B0004A61202180F8421000214163026B012A05
:1028C00003D0FFF78BFC002008BD016301680C31C9
:1028D00051E8002F22F0100241E80023002BF5D12F
:1028E00001680A68D20602D50A6849680091818D9C
:1028F000FFF79CFAE7E7000070B50446006801693D
:10290000E26821F44051114301612169A068E26944
:1029100008436169114308432168CA6849F20C639E
:102920009A430243CA6020684169A26921F4407158
:102930001143416131492068884202D030498842C0
:1029400002D1FEF763FF01E0FEF750FFE2690023CA
:10295000192164253226B2F5004F626828D0A0FB09
:102960000101930F9200FDF72BFC0146B0FBF5F03F
:102970006FF01802504301EB800006EB0010B0FB33
:10298000F5F000F0F002B1FBF5F002EB0012B1FB44
:10299000F5F06FF01803584301EB800006EB0010D0
:1029A000B0FBF5F000F00F0021681044886070BDA6
:1029B000A0FB010192185B41FDF702FC0146B0FB50
:1029C000F5F00201B1FBF5F06FF01803584301EB8D
:1029D000800006EBC000B0FBF5F000F0F80002EB61
:1029E0004002B1FBF5F0584301EB800006EBC0005C
:1029F000B0FBF5F000F00700D6E700000010014042
:102A00000014014081628285C28500214164222137
:102A100080F84210016921B10168CA6842F48072ED
:102A2000CA6001684A6942F001024A610068C168EF
:102A300041F02001C1600020704700000148FFF70D
:102A4000F7B90000CC010020FEE708B50021009195
:102A5000010E8DF80310010C8DF80210010A8DF89B
:102A600001108DF800006946042000F001F808BD4F
:102A70002DE9F047224C01278A460546C4F8B0727A
:102A8000384604F5297400F067F80026A660266031
:102A90000120A4F5297400F05FF8B046B9461DE0A6
:102AA0000AEB0500002610F8017C380601D54846DF
:102AB00000E04046C4F8A802012000F04DF8C4F838
:102AC000AC92012000F048F87806070EC4F8AC82FA
:102AD000761CF6B2082EE8D36D1EEDB2002DDFD1C4
:102AE0004546C4F8A882012004F5297400F034F8A2
:102AF000C4F80090012000F02FF82560BDE8F087B1
:102B0000000041420907090E002804DB00F1E02023
:102B100080F80014704700F00F0000F1E02080F80A
:102B2000141D704702E008C8121F08C1002AFAD11C
:102B300070477047002001E001C1121F002AFBD13D
:102B40007047000010B504460420FFF757F801480D
:102B5000046010BD1C00002070B54FF0E02400227E
:102B600065690949A36909684843A1699942FCD08C
:102B700002D2A3EB010302E0A5EB010633441A44A1
:102B80000B468242F1D370BD1C0000200248002198
:102B900001804180818070475C0200202DED048B14
:102BA000FEF7F8FCFFF724FDFFF7EEFBFFF7CEFB87
:102BB000FFF7E0FCFFF766FBFFF7F8FCFFF7A4FC6C
:102BC000FFF792FBA820FFF7BDFF6420FEF78EFB06
:102BD000FDF728FDFDF768FEFFF7D8FF0122164933
:102BE0001648FFF7EDFA6420FEF780FBDFED148A4C
:102BF000144C9FED159B4FF4FA7500BFB0EE688A38
:102C0000B0EE480AFDF7ACFE2846FEF76FFB18EE63
:102C1000100AFDF7D0FBB0EE491AF0EE691A53EC3A
:102C2000112BFDF710FBFDF709FC08EE100A18EE5A
:102C3000101AA142E4DDE1E730000020CC010020C1
:102C40000000B0420000D8429A9999999999B93FE9
:102C50000A4910B58B884FF4FA7293420CD24C8813
:102C60008B1DE0544888401CB0FBF2F302FB1300BC
:102C700048808888401C888010BD00005C020020CD
:102C800000061016000610160000000000000000EC
:102C90000102030406070809000000000102030402
:102CA000C02C00080000002034000000242B000885
:102CB000F42C00083400002024080000342B000805
:102CC0000000000000000000000000000100000003
:102CD00010000000000000000024F40000000000CC
:102CE0000000D0000000030295D626E80B2E2140FC
:042CF00000000000E0
:040000050800018965
:00000001FF
