:020000040800F2
:10000000700800209D0100083B260008A922000876
:1000100039260008E10900087D2D000800000000D5
:10002000000000000000000000000000AD280008F3
:10003000F90A0008000000009D270008AF2800080A
:10004000B7010008B7010008B7010008B7010008B0
:10005000B7010008B7010008B7010008B7010008A0
:10006000FB0A0008B7010008010B0008B7010008EF
:10007000B7010008B7010008B7010008B701000880
:10008000B7010008B7010008B7010008B701000870
:10009000B7010008B7010008B7010008B701000860
:1000A000B7010008B7010008B7010008B701000850
:1000B000B7010008B7010008B7010008B701000840
:1000C000B7010008B7010008B7010008B701000830
:1000D000B7010008712D0008B7010008B70100083A
:1000E000B7010008B7010008B7010008B701000810
:1000F000B7010008B7010008B7010008B701000800
:10010000B7010008B7010008B7010008B7010008EF
:10011000B7010008B7010008B7010008B7010008DF
:100120003D0A0008B7010008B7010008B701000840
:10013000B7010008B7010008B7010008B7010008BF
:10014000B7010008B7010008B7010008B7010008AF
:10015000B7010008B7010008B7010008B70100089F
:10016000B7010008B7010008B7010008B70100088F
:10017000B7010008B7010008B7010008000000003F
:10018000B7010008B7010008DFF80CD000F0F2FA60
:1001900000480047F53700087008002006488047EF
:1001A00006480047FEE7FEE7FEE7FEE7FEE7FEE75C
:1001B000FEE7FEE7FEE7FEE749290008890100089F
:1001C0002DE9F05F0546002092469B46884606468C
:1001D000814640241BE0284641464746224600F01F
:1001E000DCF853465A46C01A914110D311461846BE
:1001F000224600F0C3F82D1A67EB01084F4622464D
:100200000120002100F0BAF817EB00094E41201E32
:10021000A4F10104DFDC484631462A464346BDE8E6
:10022000F09FD2B201E000F8012B491EFBD27047CB
:100230000022F6E710B513460A4604461946FFF7B2
:10024000F0FF204610BD2DE9FE4F81EA030404F0C3
:10025000004421F0004100944FF0000B23F00043D4
:1002600050EA01045ED052EA03045BD0C3F30A549F
:10027000C1F30A552C44A4F2F3340194A0FB0254B8
:10028000C1F3130141F48011C3F3130343F480134A
:1002900001FB024400FB034E840A970A44EA81549E
:1002A00047EA8357A4FB076802958D0A05FB07857B
:1002B0004FEA932C04FB0C542705029D4FEA065885
:1002C00047EA1637B5EB08056EEB070C870E920E62
:1002D00047EA811742EA8312A7FB0201B6EB0B0142
:1002E00064EB00042B0D43EA0C335E1844EB1C5006
:1002F000DA465146E7FB0201C5F313044FEA0B331C
:1003000043EA14534FEA0432019C43EA0603A4F182
:100310000C040294009CCDE900B400F07BF803B01B
:10032000BDE8F08F00200146F9E700F0004230F010
:1003300000400AD0C10D01F56071C0F3160042EA19
:100340000151C20840071143704700200146704721
:1003500030B50B46014600202022012409E021FA95
:1003600002F59D4205D303FA02F5491B04FA02F592
:100370002844151EA2F10102F1DC30BD202A04DB65
:10038000203A00FA02F1002070479140C2F12003A8
:1003900020FA03F3194390407047202A04DB203AE7
:1003A00021FA02F00021704721FA02F3D040C2F195
:1003B0002002914008431946704710B541000CD007
:1003C000C0F3C751962908DC7E2909DC06DB41020F
:1003D00004D000F0004040F07E5010BD002010BD61
:1003E000C1F19604C4F1200100FA01F1E04000F0EF
:1003F000E5F9A04010BD10B5141E73F1000408DA31
:10040000401C41F1000192185B411A4301D120F0D8
:10041000010010BD2DE9F04D92469B4611B1B1FA95
:1004200081F202E0B0FA80F220329046FFF7A6FF98
:1004300004460F4640EA0A0041EA0B0153465A4679
:10044000084313D0114653EA010019D0C8F1400205
:100450005046FFF7A2FF05460E4650465946424613
:10046000FFF78CFF084305D0012004E02046394601
:10047000BDE8F08D0020054346EAE0762C43374383
:100480000A986305E40AA0EB08000022FD0A44EA8A
:1004900047540A3002D500200146E9E7010510194A
:1004A0006941DDE9084500196941BDE8F04DA2E761
:1004B0002DE9FE4F804681EA0300C00F0C460090F4
:1004C00021F0004123F00045B8EB0200A94105D21C
:1004D0004046214690461C460B46024623F000400B
:1004E000104347D0270DC7F30A00C3F30A51029007
:1004F000401A019040286BDAC3F3130040F4801BCC
:100500000098924620B10023D2EB030A63EB0B0B59
:1005100001985946C0F140025046FFF72FFF0646AA
:100520000D4650465946019A00F036F910EB080086
:100530006141002487EA115284EAE7731A4340D0EC
:10054000009A62B3019A012A4FEA075215DC001B98
:1005500061EB02014FF0004202EA0752CDE900428E
:10056000001C41F5801132462B46FFF753FF03B0C4
:10057000BDE8F08F40462146F9E7001B61EB020120
:10058000001C41F5801300185B412018A2F50017EC
:1005900047EB030140EAD570B6196D4111E06D08D3
:1005A0004FEA360645EAC0754FEA0752001B61EB79
:1005B0000201001C41F5801149084FEA3000001982
:1005C000514132462B4603B0BDE8F04FFFF713BF51
:1005D0000098012240000023D0EB020263EBE0739D
:1005E000009821464FEAE074B8EB000061EB04018B
:1005F000E9E783F000435BE781F0004158E72DE92C
:10060000F04D81EA030404F0004B21F0004514464C
:100610004FF0000A23F0004150EA050220D054EACE
:1006200001021DD0C5F30A570246C5F31303C1F3F7
:100630001300C1F30A5640F4801543F48013A7EB6E
:100640000608101BD64608F2FD3873EB050002D3EE
:1006500008F1010801E092185B41B8F1000F03DADC
:1006600000200146BDE8F08D00204FF480110646C1
:1006700084460EE0171B73EB050705D3121B63EBD3
:10068000050306434CEA010C49084FEA3000921872
:100690005B4150EA0107EDD152EA030012D082EA31
:1006A000040083EA0501084305D0101BAB4106D2C4
:1006B0000122002306E000224FF0004302E06FF029
:1006C000010253101AEB06004CEB085110EB0A0024
:1006D00041EB0B01BDE8F04DFFF78DBEC1F30A52AF
:1006E000C1F3130140F2FF3341F480119A4202DA60
:1006F00000200146704740F233439A42A2F233424F
:1007000002DC5242FFF749BEFFF738BE30B5041E87
:1007100071F1000404DB4FF00044404264EB01013E
:10072000141E73F1000405DB1C464FF000435242D7
:1007300063EB0403994208BF904230BD002801DBFF
:10074000C0F10040002901DBC1F10041814202D229
:100750004FF0004004E04FF0005001D14FF0C04096
:100760004FEA2062EFF3008162F31F6181F300889A
:1007700070470000064C074D06E0E06840F00103BA
:1007800094E8070098471034AC42F6D3FFF700FD19
:100790000439000824390008202A06DBCB17203A48
:1007A00041FA02F043EAE07306E041FA02F3D04076
:1007B000C2F1200291400843194670470029A8BFA2
:1007C0007047401C490008BF20F00100704710B47A
:1007D000B0FA80FC00FA0CF050EA010404BF10BC2F
:1007E000704749B1CCF1200421FA04F411FA0CF15C
:1007F00018BF012121430843A3EB0C01CB1D4FEA95
:1008000000614FEA102042BF002010BC704700EB8F
:10081000C35010440029A4BF10BC7047401C4900BD
:1008200008BF20F0010010BC704710B50146806B76
:10083000026C12F0500F05D0026CD20626D500F0E3
:100840000DFA10BD016C41F40071016401688A6801
:1008500012F0405F17D1027EAAB9CA6A12F4700F73
:1008600002D08A6852050ED44A6822F020024A60FB
:10087000016C21F480710164016CC90403D4016C22
:1008800041F00101016400F0E7F910BD806BC26C1A
:10089000BDE810400846104710B5806B4021016448
:1008A000416C41F00401416400F0D8F910BD10B56D
:1008B000806B00F0D2F910BD464910B54A6822F4A9
:1008C00040324A604A6843681A434A6001684A688D
:1008D00022F480724A6001684A68036942EA03228E
:1008E0004A6001684A6822F040724A6001684A68BA
:1008F00083681A434A6001688A6822F400628A6049
:1009000001688A68C3681A438A60816A6FF07062FE
:10091000D14201688A6822F070628A6001688A6840
:100920000CD0836A1A438A6001688A6822F04052B8
:100930008A6001688A68C36A1A4301E022F0405263
:100940008A6001688A6822F002028A6001688A6807
:10095000037E42EA43028A6090F820100029016871
:100960004A680FD042F400624A6001684A6822F483
:1009700060424A6001684A68174C436A04EB43339B
:100980001A4301E022F400624A600168CA6A22F454
:100990007002CA620168CA6A838B104C04EB03536D
:1009A0001A43CA6201688A6822F400728A60016888
:1009B0008A6890F8303042EA43228A6001688A6887
:1009C00022F480628A6001688A68406942EA802075
:1009D000886010BD0023014000E0FFFF0000F0FF31
:1009E000FEE7000010B5104C002060700F4801F0C9
:1009F00057F964220E490F4800F0A8F960780028E2
:100A0000FCD000210A4A084632F81030401C80B25F
:100A100019446428F8D300EE101A9FED071AF8EE77
:100A2000400A80EE810A10BD000000209C010020D9
:100A30002C000020F40000200000C84210B503483C
:100A400000F08AFA02490120087010BD3C01002024
:100A50000100002001681823CAB2103AB2FBF3F279
:100A6000054B6FF30901032A9B5CC36500D9091D7F
:100A70008165084670470000E438000810B501465B
:100A800000208B698A6A4FF0C07453B1B3F5005FE0
:100A900015D072B1012A0CD0022A0AD0032A09D13A
:100AA00004E01AB1012A06D0022A03D1C96AC90199
:100AB00000D5012010BDC96AA142FAD010BD002A9C
:100AC000F7D0012AF2D0022AF3D0032AF3D010BDC6
:100AD00030B50468256825F48025256004686360C6
:100AE0008368402B036803D099600068C26030BD02
:100AF0009A600068C16030BD7047042000F0D6BB2A
:100B0000102000F0D3BB72B6FEE7000078B50024D9
:100B1000009490F83C20012A19D0012280F83C2052
:100B20000A6807230568092A13D9EE680A3A02EB16
:100B3000420293409E43EE600B788A680A3B03EBC7
:100B400043039A400368DD682A43DA6010E002201C
:100B500078BD2E6902EB420293409E432E610B78D2
:100B60008A6803EB43039A4003681D692A431A61AC
:100B70004A681F23072A13D205686E6B521E02EBC8
:100B8000820293409E436E630B790A885B1E92B289
:100B900003EB83039A4003685D6B2A435A6327E0A3
:100BA00005680D2A12D22E6BD21F02EB82029340EF
:100BB0009E432E630B790A88DB1F92B203EB8303FB
:100BC0009A4003681D6B2A431A6311E0EE6A0D3ADE
:100BD00002EB820293409E43EE620B790A880D3B42
:100BE00092B203EB83039A400368DD6A2A43DA6218
:100BF000164B0568144A9D4206D10D68122D03D18B
:100C0000556845F48005556005689D4218D10B680C
:100C1000102B01D0112B13D1536843F40003536000
:100C2000096810290CD10A490A4A0968B1FBF2F196
:100C300001EB8101490000E0491E00910029FBD130
:100C400080F83C40002078BD002301400020014096
:100C50001C00002040420F0070477047704770B57D
:100C600004004FF0000503D0206C002610B107E00F
:100C7000012070BD204600F01DF8666484F83C60D9
:100C8000206CC00610D4206C20F4885040F0020084
:100C900020642046FFF710FE6664206C20F00200FE
:100CA00040F00100206400E0012584F83C60284603
:100CB00070BD000070B586B0064614216846FFF787
:100CC000B7FA1D493068884233D11C4800250168B5
:100CD00041F480710160006800F48070059017484D
:100CE0001438016841F0010101600068694600F0B4
:100CF00001000590202000900320CDE90105104857
:100D000000F0E0FA104C0F48C4E900050015A5609A
:100D1000C4E90350400060618000C4E90605256213
:100D20002046656200F0E8F908B1FFF7ECFEB46315
:100D3000A66306B070BD00000020014044380240A8
:100D400000000240106402403C010020F8B5044657
:100D500000200E46009094F83C10012907D0012194
:100D600084F83C1021688B68DB0702D011E0022078
:100D7000F8BD8B6843F001038B604049404B096824
:100D8000B1FBF3F101EB410100E0491E00910029A4
:100D9000FBD121688B68DB0503D58B6823F4807356
:100DA0008B6021688B68DB075DD0236C40F20165A6
:100DB000AB4343F4807323644968490505D5216C2E
:100DC00021F4005141F480512164216CC90404D5FF
:100DD000616C21F00601616400E0606484F83C000D
:100DE000A16B2948274DC863A16B28480864A16BF3
:100DF0002748C86421686FF02200086020684168B5
:100E000041F0806141602068816841F480718160B7
:100E10002168134632464C31A06B00F0D7F9686860
:100E20001C49C006206806D0884224D1816811F090
:100E3000405F13D01FE08842F8D0174A904203D198
:100E4000D1F80423D206F1D0144A904213D1D1F83C
:100E5000041301F01F011029E8D30CE0816841F070
:100E60008041816007E0206C40F010002064606CDD
:100E700040F0010060640020F8BD00001C0000206C
:100E800040420F00002301402B080008AF08000873
:100E90009908000800200140002101400022014083
:100EA0002DE9F0410446876D00F00EFB064694F8EC
:100EB00035000025022806D08020606584F8345073
:100EC0000120BDE8F0812068016821F01601016071
:100ED0002068416921F080014161206C08B9A06C53
:100EE00020B12068016821F00801016020680168D4
:100EF00021F0010101600CE000F0E6FA801B0528FA
:100F000007D920206065032084F8350084F8345028
:100F1000D7E720680068C007EED194F85C103F2046
:100F20008840B860012084F8350084F834500020EF
:100F3000C7E790F83510022903D0802141650120D0
:100F40007047052180F835100068016821F0010123
:100F500001600020704700002DE9F84304464FF07F
:100F60000009CDF8009063484FF41651A56D006854
:100F7000B0FBF1F72E6894F85C10082000FA01F13C
:100F800031420FD021680A6852070BD50A6822F057
:100F900004020A6094F85C108840A860606D40F01C
:100FA0000100606594F85C104FF0010808FA01F048
:100FB000304208D021684969090604D5A860606DEF
:100FC00040F00200606594F85C10042088403042D4
:100FD00008D021680968890704D5A860606D40F0D1
:100FE0000400606594F85C1010208840304218D0EE
:100FF00021680968090714D5A860206801684903B9
:1010000004D50068000308D5A16C07E00168C90594
:1010100003D4016821F008010160216C09B1204668
:10102000884794F85C1020208840304231D02168F5
:101030000968C9062DD5A86094F8350005282068F0
:10104000016806D0490347D5006800031DD4616CD0
:101050001CE021F0160101602068416921F0800147
:101060004161206C08B9A06C20B12068016821F0B2
:101070000801016094F85C103F208840A86084F863
:10108000358084F83490216D1FE0E16B09B1204672
:101090008847606D00282BD0606DC00714D00520F4
:1010A00084F835002068016821F001010160009892
:1010B000401C0090B84203D820680068C007F6D1F1
:1010C00084F8358084F83490E16C002910D001B0A8
:1010D0002046BDE8F04308470168C905D5D401683A
:1010E00021F01001016084F8358084F83490CCE759
:1010F000BDE8F8831C0000202DE9F041044600F013
:10110000E3F906465CB1022084F83500002584F836
:1011100034502068016821F0010101600DE00120D8
:10112000BDE8F08100F0D0F9801B052805D920200A
:101130006065032084F83500F2E720680068C00786
:10114000F0D12268116820480140D4E90103184316
:10115000D4E903363343184363691843A36918433A
:10116000E3691843236A18430843616A042903D1D9
:10117000D4E90B1319430843106020684069666A7C
:1011800020F0070130460E43012704280CD1A06A45
:101190000643E06A40B12046FFF770FC20B14020D2
:1011A000606584F83570BAE7206846612046FFF72D
:1011B00051FC94F85C203F2191408160656584F882
:1011C00035700020ACE700003F8010F02DE9F041C1
:1011D0000446866D90F83400002501280DD00120CA
:1011E00084F8340094F835700020012F07D084F87B
:1011F000340002252846BDE8F0810220FBE70227E3
:1012000084F8357060652046FFF762FC94F85C1046
:101210003F208840B0602068016841F016010160FD
:10122000206C20B12068016841F00801016020684D
:10123000016841F001010160DCE7000070B504467F
:1012400000F042F90546601C02D0044800780444CE
:1012500000F03AF9401BA042FAD370BD1000002004
:1012600070B5104E104C04280ED010280BD100F091
:101270002BF90546E068281A322803D91021304698
:1012800000F018F9E56070BD00F01EF90546A06891
:10129000281A322803D90421304600F00BF9A56042
:1012A00070BD00000010024000000020044910B58D
:1012B0000A68024202D00860FFF7D2FF10BD0000AA
:1012C000143C01402DE9F84FDFF8BCA100220125B4
:1012D00003264FF00F090AF1040BAAF1040E00BF18
:1012E0000B6805FA02F42340A34270D10F7907F08E
:1012F0000307012F01D0022F16D187684FEA420859
:1013000006FA08FC27EA0C07D1F80CC00CFA08FC16
:101310004CEA070CC0F808C04768A7430C79C4F32F
:10132000001494403C4344600C79E443A4070AD081
:10133000C4684FEA420C06FA0CF7BC438F6807FA00
:101340000CF72743C7600C7904F00304022C12D178
:10135000D40800EB840CDCF820405707FF0E09FA94
:1013600007F824EA0804D1F8108008FA07F848EAD8
:101370000408CCF8208004684FEA420C06FA0CF707
:10138000BC430F7907F0030707FA0CF72743076000
:101390004C6814F4403F70D03C4C276847F48047B9
:1013A0002760246822F0030704F480440094384C3A
:1013B00007EB040CDCF8084897074FEA177809FA9E
:1013C00008F7BC43334FB84202D1002724E054E071
:1013D000314FB84201D101271EE0304FB84201D150
:1013E000022719E02E4FB84201D1032714E02D4FF8
:1013F000B84201D104270FE02B4FB84201D1052795
:101400000AE02A4FB84201D1062705E0284FB8422A
:1014100001D1072700E0082707FA08F72743CCF88F
:101420000878DAF800405746D1F804C09C435FEAD8
:10143000CC2C00D51C433C60DBF800405F46D1F863
:1014400004C09C435FEA8C2C00D51C433C60DEF852
:1014500000407746D1F804C09C435FEA8C3C00D53D
:101460001C433C60084F083F3C68D1F804C09C43D3
:101470005FEACC3C00D51C433C60521C102AFFF4B0
:101480002FAFBDE8F88F0000083C0140443802400F
:101490000030014000000240000402400008024009
:1014A000000C0240001002400014024000180240EC
:1014B000001C02400069084000D0012070470AB1BA
:1014C000816170470904FBE70148806870470000AC
:1014D0001000002002488168027811448160704742
:1014E000100000200B4810B5016841F40071016044
:1014F000016841F480610160016841F4807101601C
:10150000032000F06FF8002000F006F800F024F847
:10151000002010BD003C024070B50D4D04464FF454
:101520007A712878B1FBF0F00A490968B1FBF0F054
:1015300000F018FB48B9102C07D200222146501E9B
:1015400000F030F800206C6070BD012070BD00001C
:10155000100000201C0000200A4808B5016841F472
:1015600080410160006800F4804000900548001F41
:10157000016841F080510160006800F080500090E7
:1015800008BD000044380240002809DB00F01F02BB
:10159000012191404009800000F1E020C0F80011D5
:1015A00070470000F0B40E4B1B680C46C3F30223D7
:1015B000C3F10705042D00D90425191D072901D2FF
:1015C000002300E0DB1E012606FA05F1491E21403A
:1015D00099409E40761E16403143F0BC01F0F4BBAA
:1015E0000CED00E0064900F0070208684FF6FF0323
:1015F000184040EA0220034A104308607047000088
:101600000CED00E00000FA052DE9F0470E4605005C
:1016100065D0DFF81481D8F80000F7B200F00700B9
:10162000B04207D288F80070D8F8000000F0070038
:10163000B04254D128683D4C810712D5400703D5EC
:10164000206840F4E05020602878000703D5206827
:1016500040F4604020602068A96820F0F000084352
:1016600020602878C0072DD03049686808390128E3
:1016700012D0022813D0032811D009688907002945
:101680002DDA216821F0030101432160FFF71CFFDF
:10169000814641F2883A0EE009688903EFE709685C
:1016A0008901ECE7FFF710FFA0EB0901514502D9D2
:1016B0000320BDE8F0872068696800F00C00B0EBFB
:1016C000810FEFD1D8F80010404601F00701B14278
:1016D00007D90770006800F00700B04201D0012070
:1016E000E7E72878400705D52068E96820F4E0504E
:1016F000084320602878000706D52068296920F46F
:10170000604040EAC100206000F038F82168084AD3
:10171000C1F30311515CC8400649086006480068DF
:10172000FFF7FAFE0020C4E7003C02400838024000
:10173000EC3800081C000020140000200448054973
:1017400000680968044AC1F38221515CC8407047AF
:101750001C00002008380240FC38000804480549F5
:1017600000680968044AC1F34231515CC8407047BF
:101770001C00002008380240FC380008154810B54D
:10178000006810F00C02144813D01449042A0FD03A
:10179000082A0ED10F4C241F2268236802F03F0252
:1017A0005B0207D52068C0F38810A0FB010106E0AA
:1017B000084610BD2168C1F38811A1FB0001002378
:1017C000FEF7FEFC2168C1F30141491C4900B0FB52
:1017D000F1F010BD083802400024F40040787D018B
:1017E0002DE9F84F04006ED02078DFF84C93C00745
:1017F000A9F104054AD009F104000168C1F381018F
:10180000012908D00068C0F3810002280AD1D9F864
:101810000000400206D52868800337D5606800289C
:10182000E1D033E06068B0F5803F10D0B0F5A02F74
:10183000286810D020F480302860286820F48020A8
:1018400028606068A8B1FFF73FFE06460DE02868F3
:1018500040F48030F4E740F480202860F7E700BFD0
:10186000FFF732FE801B642873D828688003F7D501
:101870000CE0FFF729FE064605E000BFFFF724FE57
:10188000801B6428F0D828688003F7D42078DFF81C
:10189000AC8280074FF0000A3ED5A748001D0168C2
:1018A00011F00C0F08D00068C0F3810002280BD1A2
:1018B000D9F80000400207D42868800716D5E068F0
:1018C000012800D112E033E1E068B8B10120C8F886
:1018D0000000FFF7F9FD064605E000BFFFF7F4FD45
:1018E000801B0228C0D828688007F7D5286821699E
:1018F00020F0F80040EAC10028600DE0C8F800A020
:10190000FFF7E2FD064604E0FFF7DEFD801B02283C
:101910001FD828688007F7D42078000722D5864F83
:1019200087486169703771B101210160FFF7CCFD13
:10193000064604E0FFF7C8FD801B022809D8386876
:101940008007F7D50EE0C0F800A0FFF7BDFD064602
:1019500005E082E0FFF7B8FD801B02287DD83868DB
:101960008007F7D42078400768D5DFF8CCB100278E
:101970000BF13C0BDBF80000C0000BD4DBF80010CF
:1019800041F08051CBF80010DBF80000012700F097
:10199000805000906B4E3068C00510D4306840F421
:1019A00080703060FFF790FD009005E0FFF78CFD40
:1019B0000099401A022850D83068C005F6D55E4E0E
:1019C000A0686C3601280FD00528306810D020F0B0
:1019D00001003060306820F004003060A068B8B1C9
:1019E000FFF772FD00900FE0306840F00100F4E76F
:1019F00040F004003060F7E7FFF766FD0099411AF8
:101A000041F28830814266D830688007F4D50EE014
:101A1000FFF75AFD009007E0FFF756FD0099411AC5
:101A200041F28830814256D830688007F4D42FB113
:101A3000DBF8001021F08051CBF80010A069C8B38A
:101A40003D49091D0968C1F3810102294AD00228D4
:101A5000504607D0C8F8600000E03CE0FFF734FDD6
:101A600004463BE04746C8F86000FFF72DFD0646F8
:101A700005E000BFFFF728FD801B02282BD828684F
:101A80008001F7D4D4E907010843A16A2E4A490826
:101A900002EB0141626A41EA8211084394F82C107A
:101AA00040EA0161C9F8001001203866FFF70CFD1B
:101AB000044606E03EE000BFFFF706FD001B0228DB
:101AC00009D828688001F7D534E000BFFFF7FCFC97
:101AD000001B022802D90320BDE8F88F2868800186
:101AE000F4D427E00128F7D0D9F80000E26900F427
:101AF000800191421CD1226A00F03F01914217D12E
:101B000047F6C071626A0140B1EB821F10D1A26A30
:101B10004FF0FF3300F4403103EB5202B1EB024FC0
:101B200006D194F82C1000F07060B0EB016F01D07A
:101B30000120D1E70020CFE70438024000004742EF
:101B4000800E4742007000400000FFFF4FF0E02190
:101B50000428086903D020F004000861704740F0B1
:101B60000400FAE710B5401EB0F1807F01D30120D8
:101B700010BD4FF0E02460610F21601701F024F9DF
:101B80000020A06107202061002010BD70B590F8F2
:101B90003C20012A32D0012480F83C40022280F807
:101BA0003D2003685A689D6822F070060A68324337
:101BB0005A60134B02689A4214D0B2F1804F11D090
:101BC000104B9A420ED0104B9A420BD00F4B9A42B8
:101BD00008D00F4B9A4205D00E4B9A4202D00E4BC2
:101BE0009A4204D1496825F080031943916080F836
:101BF0003D40002180F83C10084670BD022070BDB9
:101C0000000001400004004000080040000C0040BB
:101C100000040140004001400018004010B50400DD
:101C200003D094F83D0010B107E0012010BD002062
:101C300084F83C00204600F01FF8022084F83D00A4
:101C4000211D206800F088FE012084F8460084F8F9
:101C50003E0084F83F0084F8400084F8410084F896
:101C6000420084F8430084F8440084F8450084F876
:101C70003D00002010BD000008B5006806498842FC
:101C800008D10648016841F002010160006800F0D7
:101C90000200009008BD00000004004040380240EF
:101CA00090F83D10012901D001207047022180F8F1
:101CB0003D1000681149884214D0B0F1804F11D016
:101CC0000F4988420ED00F4988420BD00E498842F6
:101CD00008D00E49884205D00D49884202D00D49EE
:101CE000884204D1816801F00701062903D0016808
:101CF00041F0010101600020704700000000014038
:101D00000004004000080040000C004000040140B6
:101D1000004001400018004070B5044690F83C00B7
:101D20000025012817D0012684F83C60022084F8A1
:101D30003D002068826822F0770222F47F428260B0
:101D40000868502838D00DDC20284FD005DC90B32F
:101D5000102811D14AE0022070BD302846D040281A
:101D60000AD13BE060282FD070280DD0B0F5805FFD
:101D700003D0B0F5005F12D0012584F83D6000204B
:101D800084F83C00284670BDCB68D1E90121206869
:101D900000F04EFE2068816841F0770109E0CB68D1
:101DA000D1E90121206800F043FE2068816841F4F8
:101DB00080418160E1E719E0CA684968206800F065
:101DC00049FE5021206806E0CA684968206800F092
:101DD00052FE6021206800F035FECEE7CA684968EF
:101DE000206800F037FE40212068F4E722680146B1
:101DF0001046F0E770477047F8B501680446086878
:101E0000CA684B6910F00F0F4FF000055AD003F06D
:101E1000010602F49077374365D0C10705D0D1059C
:101E200003D5616C41F001016164410705D5D90713
:101E300003D0616C41F002016164810705D5D907C7
:101E400003D0616C41F004016164010707D502F021
:101E50002001314303D0616C41F008016164616C81
:101E600000293BD0800604D5900602D5204600F01C
:101E700043FE20684069616CC0F3801001F00801E6
:101E8000014320462BD000F010FE20684069400638
:101E900021D52068143050E8001F21F0400140E8AF
:101EA0000012002AF5D1E06BA8B16E490165E06B24
:101EB000FFF73FF8002811D0E06B016D01B0BDE8DD
:101EC000F040084783060ED593060CD52046BDE8A2
:101ED000F84000F011BE2046FFF78DFFF8BDFFF778
:101EE0008AFF6564F8BD266B2023012E7DD1C606CE
:101EF0007BD5D60679D508684868009048694FF0C8
:101F00000206400641D5E16B086840680004000CF9
:101F1000E8D0A28D8242E5D9E085C869B0F5807F1E
:101F20002DD020680C3050E8001F21F4807140E86B
:101F30000012002AF5D12168143151E8000F20F079
:101F4000010041E80002002AF5D12068143050E871
:101F5000001F21F0400140E80012002AF5D184F86A
:101F60004230256320680C3050E8001F21F010013A
:101F700040E80012002AF5D1E06BFEF791FF66639E
:101F8000A08DE18D401A81B22AE0A08DE18D401A2A
:101F900081B2E08D0028A5D00029A3D022680C32A0
:101FA00052E8000F20F4907042E80007002FF5D1AE
:101FB0002068143050E8002F22F0010240E800278A
:101FC000002FF5D184F84230256320680C3050E8AA
:101FD000002F22F0100240E80023002BF5D16663A9
:101FE0002046FFF707FFF8BDFFE705062BD51506CE
:101FF00029D594F841002128F5D1A068B0F5805F7B
:1020000001D12069B0B1206A411C216221680078A9
:102010004860E08C401E0004000CE084E3D120689E
:10202000C16821F08001C1602068C16841F04001B1
:10203000C160D8E7206A0088C0F308004860206AC1
:10204000801C2062E5E74006CDD55006CBD5CA6896
:10205000204622F04002CA6084F8413000F023F9A3
:10206000C1E700009B2A000870B5040004D094F872
:102070004100002510B106E0012070BD84F84050F9
:10208000204600F023F8242084F841002068C1682D
:1020900021F40051C160204600F090FD20680169E4
:1020A00021F4904101612068416921F02A014161D8
:1020B0002068C16841F40051C1606564202084F843
:1020C000410084F842006563002070BDF0B587B020
:1020D000044614216846FEF7ABF8274F2368002218
:1020E00026490224032507262548BB4224D1234B39
:1020F00014331F6847F010071F601B6803F01003BC
:1021000005930B6843F001030B60096802AB01F013
:10211000010105916902CDE9001483E86400694674
:10212000FFF7D0F8002211462520FFF73BFA2520C3
:10213000FFF72AFA07B0F0BD124FBB42FAD10F4B9E
:1021400010331F6847F400371F601B6803F4003327
:1021500005930B6843F001030B60096802AB01F0C3
:10216000010105910C21CDE9001483E86400694662
:10217000FFF7A8F8DEE70000001001403038024009
:10218000000002400044004090F84230202B01D073
:102190000220704721B11AB10023036300F094BDFF
:1021A0000120704710B50068074988420AD10748E6
:1021B000007801F07FFBBDE810400122034904488C
:1021C000FFF7E2BF10BD0000001001402400002016
:1021D000E40100202DE9F843044690F841009846B8
:1021E00016460D46202802D00220BDE8F88385B1AE
:1021F0007EB100206064212084F84100FFF764F97B
:10220000A6848146E684A0682027B0F5805F02D0CE
:1022100003E00120E9E7206910B12E4600250EE019
:1022200000260CE08021204600F069FDA8B9C6B167
:1022300016F8010B21684860E08C401EE084E08CB9
:102240004B464FF00002CDF800800028EAD14FF055
:102250004001204600F053FD40B184F84170032056
:10226000C3E735F8020BC0F30800E3E784F84170D8
:102270000020BAE790F84130202B01D002207047AF
:1022800079B172B101628284C2840021416421214A
:1022900080F841100068C16841F08001C1600020F1
:1022A0007047012070477047FEE700002DE9F041BC
:1022B0002149B1F9001088423BD0204E40F48855A6
:1022C000002204213046FFF7FAF8022001F064FAF8
:1022D00000244FF6FF77002208213046FFF7EFF881
:1022E000280401D5012200E0002210213046FFF72A
:1022F000E6F8022001F050FA012208213046FFF7EB
:10230000DEF807EA4505022001F046FA641CE4B253
:10231000102CE0D3002208213046FFF7D0F802202D
:1023200001F03AFA3046BDE8F04101220421FFF7FE
:10233000C6B8BDE8F081000026000020000C024075
:102340001FB500211648009101910291134A039193
:1023500002604FF48032C0E901210161017680F80A
:1023600020101203C26201245210C4618262C16053
:1023700080F830104461FEF772FC08B1FEF7C3FB31
:102380000520CDE900040720029069460448FEF7C5
:10239000BDFB002801D0FEF7B6FB1FBD00200140A9
:1023A000F4000020094808B5016841F4800101608B
:1023B0000068002200F48000009011463820FFF7EA
:1023C000F1F8BDE808403820FFF7DEB830380240A9
:1023D0002DE9F04786B014216846FDF729FF5948DA
:1023E0000024016841F010010160016801F0100152
:1023F0000591016841F020010160016801F02001B0
:102400000591016841F080010160016801F08001DF
:102410000591016841F004010160016801F00401C7
:102420000591016841F001010160016801F00101BD
:102430000591016841F002010160016801F00201AB
:102440000591016841F00801016000683E4F00F00D
:102450000800059000224FF4FE713846FFF72FF870
:10246000DFF8E880002201214046FFF728F8DFF876
:10247000E090002243F203414846FFF720F8DFF8DE
:10248000D4A0012204215046FFF719F80022182198
:102490005046FFF714F8142000904FF40410012563
:1024A000CDE9010569462C48FEF70CFF0420032600
:1024B000CDE90005CDE9024669463846FEF702FF40
:1024C0004FF4FC700090CDE90154694638460394FE
:1024D000FEF7F8FE0095CDE90154694640460394A5
:1024E000FEF7F0FE40F203400090CDE9015469464A
:1024F00048460394FEF7E6FE3003CDE90005CDE93A
:10250000024669464846FEF7DDFE1C20CDE900057F
:10251000CDE9024669465046FEF7D4FE0022114638
:102520000820FFF73FF80820FFF72EF80022114699
:102530000A20FFF737F80A20FFF726F806B0BDE8B3
:10254000F0870000303802400014024000080240CA
:1025500000040240000C02400010024010B586B09A
:10256000002418480094019402940394049414499C
:10257000059401603121C0E9011440F24731C0E9FE
:10258000031480218161FFF749FB08B1FEF7BBFA14
:102590004FF48050009069460A48FFF7BDFB08B130
:1025A000FEF7B1FA2020CDE9040404A90548FFF79D
:1025B000EDFA002801D0FEF7A6FA06B010BD000023
:1025C000000400409C0100200C4810B50A4901603D
:1025D0004FF4E1314160002181600C22C160C0E90B
:1025E00004128161C161FFF73FFD002803D0BDE8FF
:1025F0001040FEF788BA10BD00100140E401002031
:102600000C4810B50A4901604FF416514160002191
:1026100081600C22C160C0E904128161C161FFF7D1
:1026200023FD002803D0BDE81040FEF76CBA10BDB2
:10263000004400402C020020FEE7FEE72DE9F041B7
:102640002DED048B80250424484F0026B0EE009A1F
:10265000281900B2FF2800DDFF20C0B2FFF726FED8
:102660000A20FEF7EBFDFEF7BDF9B0EE408AE8B2B6
:10267000FFF71CFE0A20FEF7E1FDFEF7B3F9281B69
:1026800000B2F0EE408A002800DA0020C0B2FFF766
:102690000DFE0A20FEF7D2FDFEF7A4F900EE904AE7
:1026A00038EE401A08EEC98AF8EEE00A04FB04F09E
:1026B00060EE891AC1EE210A38EE001A00EE100A07
:1026C000F8EEC01A81EE210AB0EEC01A11EE100A1F
:1026D000B84209DAF5EEC00AF1EE10FA01DD012088
:1026E00015E04FF0FF3012E080EE801AB0EE410AA4
:1026F00000F09EFBBDEEC00A10EE100A00B2A04230
:1027000000DD20466142884200DA084600B2291AFC
:1027100009B281F3080598B100EE104ADFED140A02
:10272000B8EEC00A60EE200AB7EE000A00F05CFBCB
:10273000BDEEC00A761C0C2E10EE100A04B287DB28
:102740000C4CE8B2C4ED018A2070FFF7AFFD606861
:10275000FDF7EBFD41EC100B217853EC102BBDEC99
:10276000048B05A0BDE8F04100F00ABBBD378635FB
:102770009A99193F000000205B4E6577746F6E20B8
:10278000456E645D20436F64653D25642C20526175
:10279000774A3D252E32660A00000000704700008F
:1027A00000B52748DFED270A2DED028B91B090EDA3
:1027B000010A007820EE200ADFED230A80EE208A4D
:1027C00000EE100ADFED210AB8EE400A60EE208A22
:1027D00018EE100AFDF7A9FD41EC100B1CA053ECFC
:1027E000102B00F0CDFA18EE900AFDF79EFD41EC9B
:1027F000100B1FA053EC102B00F0C2FA18EE100AB9
:10280000FDF793FD41EC100B20A153EC102B684613
:1028100000F0C6FA684601F025F818EE900AFDF7B8
:1028200084FD41EC100B1DA153EC102B684600F009
:10283000B7FA684601F016F811B0BDEC028B00BD86
:10284000000000203333534000F07F4500401C421D
:10285000414443206176657261676520766F6C74D0
:10286000616765203D20252E336620560A00000052
:10287000506F7420526573697374616E6365203D97
:1028800020252E326620CEA90A00000074322E7454
:1028900078743D22252E33662200000074332E7496
:1028A00078743D22252E3266220000007047FEF724
:1028B00011BE000030B593B030216846FDF7B8FC7A
:1028C00014210CA8FDF7B4FC1D480025016841F057
:1028D00080510160006800F0805011901948016833
:1028E00041F4804101600068022400F480401190AE
:1028F0000120039010200490009406940820CDE954
:102900000750A820CDE9090404200B906846FEF783
:1029100067FF08B172B6FEE70CA90F2081E831000D
:102920004FF4A0500F904FF48050109005210CA848
:10293000FEF76AFE002801D072B6FEE713B030BD84
:1029400040380240007000400248016841F47001C4
:102950000160704788ED00E0F0B50268294C2A4D0F
:102960002A4E2B4F2B4B4FF0804CA04209D0604594
:1029700007D0A84205D0B04203D0B84201D0984257
:1029800004D122F0700E4A6842EA0E02A0421BD027
:10299000604519D0A84217D0B04215D0B84213D024
:1029A000984211D01C4DA8420ED01C4DA8420BD00D
:1029B0001B4DA84208D01B4DA84205D01A4DA84275
:1029C00002D01A4DA84203D122F44075CA682A43A6
:1029D0004D6922F080022A4302608A68C2620A6856
:1029E0008262A04201D0984201D1096901630121AC
:1029F00041610169C90703D0016921F00101016149
:102A0000F0BD00000000014000040040000800404C
:102A1000000C00400004014000400140004401401F
:102A20000048014000180040001C00400020004009
:102A300010B5846842EA032224F47F440A43224307
:102A4000826010BD826822F070020A4342F00701E2
:102A50008160704710B5036A046A24F001040462BF
:102A6000846924F0F00444EA021423F00A020A43C1
:102A70008461026210BD10B5036A046A24F0100478
:102A80000462846923F0A00324F4704444EA02320F
:102A900043EA01118261016210BD10B5806B002113
:102AA000C185C184FFF7A7F910BD01680C3151E859
:102AB000002F22F4907241E80023002BF5D1016829
:102AC000143151E8002F22F0010241E80023002BCD
:102AD000F5D1016B012909D101680C3151E8002FB2
:102AE00022F0100241E80023002BF5D1202180F8CC
:102AF000421000210163704708B590F84210222966
:102B000001D0022008BD82684FF480539A4201D15F
:102B1000016921B1816A9A421BD04AB10AE0026878
:102B2000816A5268C2F308020A80816A891C08E03F
:102B3000026972B10268526802F07F020A70816A0B
:102B4000491C8162C18D491E0904090CC18503D04D
:102B50001BE002685268F1E70168CA6822F02002AF
:102B6000CA600168CA6822F48072CA6001684A6952
:102B700022F001024A61202180F8421000214163C5
:102B8000026B012A03D0FFF70DFB002008BD016393
:102B900001680C3151E8002F22F0100241E80023B7
:102BA000002BF5D101680A68D20602D50A68496887
:102BB0000091818DFFF71EF9E7E7000070B504462C
:102BC00000680169E26821F4405111430161216903
:102BD000A068E26908436169114308432168CA6833
:102BE00049F20C639A430243CA6020684169A269B2
:102BF00021F440711143416131492068884202D07B
:102C00003049884202D1FEF7A9FD01E0FEF796FDAA
:102C1000E2690023192164253226B2F5004F62686B
:102C200028D0A0FB0101930F9200FDF7C9FA0146DD
:102C3000B0FBF5F06FF01802504301EB800006EB9B
:102C40000010B0FBF5F000F0F002B1FBF5F002EB84
:102C50000012B1FBF5F06FF01803584301EB800050
:102C600006EB0010B0FBF5F000F00F0021681044F7
:102C7000886070BDA0FB010192185B41FDF7A0FACE
:102C80000146B0FBF5F00201B1FBF5F06FF018035F
:102C9000584301EB800006EBC000B0FBF5F000F0FC
:102CA000F80002EB4002B1FBF5F0584301EB800065
:102CB00006EBC000B0FBF5F000F00700D6E700001F
:102CC000001001400014014081628285C28500210C
:102CD0004164222180F84210016921B10168CA686B
:102CE00042F48072CA6001684A6942F001024A6196
:102CF0000068C16841F02001C160002070472DE9E3
:102D0000F843984617460D460446089E24E0701C7A
:102D100022D0FEF7D9FBA0EB0800B0421AD8CEB102
:102D20002068C168490717D5802D15D0402D13D0D4
:102D30000168C94309070FD4016800254068009065
:102D40002046FFF7B2FE0820606484F8405001205E
:102D5000BDE8F8830320FBE72068006835EA00003F
:102D600004D00020B842D2D00020F1E70120F9E7DA
:102D70000148FFF741B80000E4010020FEE7000031
:102D80000FB4054B10B503A9044A029800F05EF990
:102D900010BC5DF814FB0000CD37000828000020AF
:102DA0000FB4084B10B504A902AA039800F04EF91D
:102DB000044602A9002000F0E0FC204610BC5DF8AB
:102DC00014FB00007B3700080907090E002804DB0C
:102DD00000F1E02080F80014704700F00F0000F1CF
:102DE000E02080F8141D704710B52DED028BB0EE79
:102DF000608AF0EE408A18EE101A18EE900AFDF77D
:102E00009DFC00F07040B0F1005F0CD018EE100A8D
:102E100020F00040C0F1FF40C00F02BFB0EE480AF2
:102E2000BDEC028B10BDB0EE680ABDEC028B10BD8C
:102E300010B52DED028BB0EE408A18EE100AFDF7AA
:102E4000BCFA01EE100A18EE100AB7EE000A78EE8E
:102E5000410A10F0004F4FF07F4010EE901A12D050
:102E6000B1F13F4F24BF10EE901AB0EB410F12D2D8
:102E700010EE901AB1F17C5F1CDD10EE901AB0EBF1
:102E8000410F17D314E0B1F13F4F07D910EE901A5C
:102E9000B0EB410F02D331EE401A0BE010EE901A66
:102EA000B1F17C5F06DB10EE901AB0EB410F01D35D
:102EB00031EE001A18EE100ABDEC028B11EE101A5A
:102EC00061F31E0000EE100A10BD02E008C8121FD8
:102ED00008C1002AFAD170477047002001E001C103
:102EE000121F002AFBD170472DE9FF5FDDE90220A8
:102EF000010DDDF838B0024318D044F61050A1F2AD
:102F0000FF3141430D140F98012820D0A5EB0B0091
:102F1000401C5FEA000A4FF00004474EDFF81C91A6
:102F2000A046504616D5CAF1000728E00F980124A4
:102F300043A2012808D0002100980F9BC0E900217E
:102F4000C0E90243BDE8FF9F6FEA0B01F4E7CBF154
:102F50000000DEE7074612E0F80707D022463346B6
:102F600040464946FDF76FF980468946224633467A
:102F700010461946FDF767F904460E467F10002FEC
:102F8000EAD1DDE90201BAF1000F42464B4602DA0E
:102F9000FDF759F901E0FDF732FB04460E46002229
:102FA000284BFDF7B3FB03D84FF0FF30014607E095
:102FB0000022254B20463146FDF77AFAFDF78EFBBD
:102FC000102409E0002C0ADB0A220023FDF7F8F8A0
:102FD000019B30321A55641E50EA0102F2D1641C82
:102FE000019AC4F1110314440F9A012A03D001225B
:102FF00008430DD10AE0084304D000204FF0110B24
:103000000F9080E7A3EB0B056D1E0DE05B4504DD23
:103010004FF0000205F1010504E003DA4FF0000271
:10302000A5F10105002AECD000980F99C0E9023102
:10303000C0E9004586E70000000024400000F03FA2
:10304000300000000000F0430000E03F2DE9FF4F9A
:1030500095B09B468946064600250FE2252877D184
:1030600000242746F84A0121059400E0044316F89D
:10307000013F203B01FA03F01042F7D130782A28B3
:1030800011D06FF02F033078A0F13002092A16D842
:10309000059A44F0020402EB820203EB4202104460
:1030A000761C0590EFE759F8042B0592002A03DA05
:1030B000504244F40054059044F00204761C3078E9
:1030C0002E2816D116F8010F44F004042A280DD03A
:1030D0006FF02F023078A0F13003092B09D807EBED
:1030E000870302EB4303C718761CF3E759F8047B08
:1030F000761C30786C280FD006DC4C2817D0682856
:103100000DD06A2814D104E0742810D07A280FD189
:103110000DE044F400140AE044F4801401E044F4A7
:1031200040147278824202D104F58014761C761C19
:10313000307866280BD013DC582877D009DC0028BB
:1031400075D04528F6D04628F4D047281AD19DE1FD
:1031500018E0632835D0642879D0652812D195E12C
:10316000702873D008DC6728F1D069286FD06E28EA
:103170000DD06F2806D1B5E073282CD0752875D0F6
:10318000782874D05A46179990476D1C75E1C4F39E
:103190000250022809D003280DD0D9F800100428C5
:1031A0000DD00D6009F1040967E1D9F80010EA17A4
:1031B000C1E90052F6E7D9F800100D80F2E70D7072
:1031C000F0E719F8041B8DF8001000208DF80100BD
:1031D000EA46012003E059F804AB4FF0FF306107E5
:1031E0004FF0000102D40DE008F101018846B94218
:1031F0000FDA8045F8DB1AF808100029F4D108E04E
:1032000008F1010188468142FADB1AF8081000290A
:10321000F6D105985B46A0EB080721463846179A79
:1032200000F094FA284400EB080507E04DE029E19E
:103230000DE01AF8010B5A4617999047B8F10108AA
:10324000F7D25B4621463846179A13E142E00A223C
:103250000092C4F302524FF0000A022A08D059F833
:1032600004CB032A4FEAEC710AD00DE029E02AE0F2
:1032700009F1070121F00702F2E802C1914609E0D5
:103280000FFA8CFC4FEAEC71042A03D14FFA8CFC44
:103290004FEAEC71002907DA0A460021DCF1000C44
:1032A00061EB02012D2202E0220504D52B228DF8CC
:1032B0000420012203E0E20701D02022F7E7904634
:1032C00059E00A2102E010220DE010214FF0000A1F
:1032D00000910BE010224FF0000A44F0040408278C
:1032E000009203E008224FF0000A0092C4F3025259
:1032F000022A05D059F804CB0021032A08D009E09E
:1033000009F1070121F00702F2E802C1914605E048
:103310001FFA8CFC042A01D10CF0FF0C4FF00008BE
:10332000220728D5702806D0009B83F0100353EAAB
:103330000A0305D00EE040228DF80420012208E0A7
:103340005CEA010206D030228DF804208DF80500D9
:1033500002229046009B83F0080353EA0A030AD135
:103360005CEA010201D1620705D530228DF8042004
:103370004FF001087F1E582804D034A003900EA8F7
:1033800002900DE036A0F9E753466046009AFCF73C
:1033900017FF84460398825C0298401E02900270D8
:1033A0005CEA0100F0D1029806A9081A00F1200A8F
:1033B000600702D524F4803400E00127574502DD80
:1033C000A7EB0A0000E0002000EB0A01009005983E
:1033D0004144401A0590E00306D45B462146179A03
:1033E000059800F0B3F90544002706E001A85A4605
:1033F000C05D179990476D1C7F1C4745F6DBE003C5
:103400000CD55B462146179A059800F09FF90544B4
:1034100004E030205A46179990476D1C0099481EC9
:1034200000900029F5DC08E0029802995A460078DD
:10343000491C0291179990476D1CBAF10001AAF13D
:10344000010AF1DC65E10000092801003031323366
:1034500034353637383961626364656600000000D0
:1034600030313233343536373839414243444546BA
:103470000000000000F058F90544761C3078002860
:103480007FF4ECAD19B02846BDE8F08F620700D498
:10349000062709F1070222F0070CFCE80223E146A7
:1034A00003F000485FEA080C02D00FF2702C0DE028
:1034B0005FEA045C02D50FF2682C07E05FEAC47C87
:1034C00002D00FF2602C01E0AFF2700C4FF0FF3829
:1034D00023F00043CDF850C065280CD006DC452809
:1034E00009D046281DD047283DD13DE0662818D098
:1034F00067287ED138E00021112F01DB112000E088
:10350000781CCDE9000106A90EA8FFF7EDFCDDE966
:103510000F010E9A03910021009207F1010A049114
:103520004DE04FF000400097CDE9011006A90EA82C
:10353000FFF7DAFCDDE90F0203920E9B11990022DE
:10354000DDF80CA00093049211B9791C00EB010A7C
:10355000B7EB0A0004D4C0F1FF3007F1010A049070
:10356000AAEB0700019044E0012F00DA01270021B7
:10357000112F01DD112000E03846CDE9000106A938
:103580000EA8FFF7B1FCDDE90F010E9A03910021AF
:1035900004910092BA4621070CD40399514500DAF0
:1035A0008A46BAF1010F05DD009AAAF10101515CCA
:1035B000302908D0B84202DA10F1040F06DA0121EE
:1035C000CDE9011015E0AAF10101E9E7002805DCC9
:1035D000049901440491AAEB000102E0411C514509
:1035E00000DD8A460499401A401C01904FF00040CB
:1035F0000290200704D40198504501DBCDF80480E7
:1036000000208DF84F0002980DF14F07B0F1004FE8
:1036100025D02B200E9002984FF0020800280CDADB
:10362000404202902D200E9007E00A210298FCF7FC
:103630008FFE3031029007F8011DB8F10001A8F1AA
:103640000108F2DC02980028EFD1791E0E9808706C
:10365000307800F0200040F0450007F8020D12A875
:10366000C01B00F107081498007800B1012000EB9E
:103670000A01019801EBE07105984144401A401E8F
:103680000590E00306D45B462146179A059800F0A2
:103690005DF805441498007818B15A461799904778
:1036A0006D1CE00324D55B462146179A059800F06F
:1036B0004DF805441CE00498002807DBDDE9030110
:1036C000884203DD0098405C179901E0179930208B
:1036D0005A469047049805F10105401C0490019852
:1036E000401E019004D12E205A46179990476D1C18
:1036F000BAF10001AAF1010ADDDC05E017F8010BBF
:103700005A46179990476D1CB8F10001A8F10108BD
:10371000F4DC5B462146179A0598ABE62D000000C5
:103720002B000000200000002DE9F0410446002598
:103730001E461746880404D405E039462020B047C9
:103740006D1C641EF9D52846BDE8F0812DE9F041D5
:10375000044600251E469046C80301D5302700E0E8
:103760002027880404D505E041463846B0476D1C43
:10377000641EF9D52846BDE8F0810A68531C0B6029
:103780001070704710B504460420FEF7DFF90148B9
:10379000046010BD2000002070B54FF0E02400222E
:1037A00065690949A36909684843A1699942FCD040
:1037B00002D2A3EB010302E0A5EB010633441A4455
:1037C0000B468242F1D370BD2000002013B54FF6A6
:1037D000FF73012269460248FEF7FCFC00981CBDFD
:1037E0002C02002002480021018041808180704726
:1037F00074020020FDF776FEFFF75CF8FEF7E8FDA7
:10380000FEF7D0FDFEF7E0FEFEF79AFDFEF7F8FEAC
:10381000FEF7A4FEA820FFF7B5FF6420FDF70EFD1C
:10382000FFF7E0FF01220D490D48FEF7ADFCFDF763
:103830004BFE04466420FDF701FD4FF4FA7500BF0E
:10384000FDF742FE001BA842FAD3FDF73DFE0446F9
:10385000FEF7F4FEFEF7A4FFF2E7000024000020CC
:10386000E401002010B5044602E0641C00F010F8EA
:10387000207808B1002CF8D1FF2000F009F8FF20D3
:1038800000F006F8BDE81040FF2000F001B800008D
:1038900008B58DF80000064800680168C94349066C
:1038A000FBD4012269460248FEF7E4FC08BD000093
:1038B000E40100200A4910B58B884FF4FA72934254
:1038C0000CD24C888B1DE0544888401CB0FBF2F3AE
:1038D00002FB130048808888401C888010BD0000CF
:1038E00074020020000610160006101600000000EA
:1038F00000000000010203040607080900000000A0
:103900000102030424390008000000202C000000FC
:10391000CA2E0008503900082C000020440800007E
:10392000DA2E000800000000000000000000000087
:103930000000000001000000100000000000000076
:103940000024F400000000000000FFFF0000000061
:040000050800018965
:00000001FF
